:020000040800F2
:1000000050070020DD010008F1080008B9080008C9
:10001000D5080008410600082D0D0008000000006A
:10002000000000000000000000000000650A000859
:100030005D0600080000000085090008290B000883
:10004000F7010008F7010008F7010008F7010008B0
:10005000F7010008F7010008F7010008F7010008A0
:10006000F7010008F7010008F7010008F701000890
:10007000F7010008F7010008F7010008F701000880
:10008000F7010008F7010008F7010008F701000870
:10009000F7010008F7010008F7010008F701000860
:1000A000F7010008F7010008F7010008F701000850
:1000B000F7010008F7010008F7010008F701000840
:1000C000F7010008F7010008F7010008F701000830
:1000D000F70100087D0B0008F7010008F701000890
:1000E000F7010008F7010008F7010008F701000810
:1000F000F7010008F7010008F7010008F701000800
:10010000F7010008F7010008F7010008F7010008EF
:10011000F7010008F7010008F7010008F7010008DF
:10012000F7010008F7010008F7010008F7010008CF
:1001300000F002F800F042F80AA090E8000C8244B7
:100140008344AAF10107DA4501D100F037F8AFF294
:10015000090EBAE80F0013F0010F18BFFB1A43F0A5
:10016000010318472C0E00004C0E0000103A24BF6B
:1001700078C878C1FAD8520724BF30C830C144BF0C
:1001800004680C607047000000230024002500264E
:10019000103A28BF78C1FBD8520728BF30C148BFEA
:1001A0000B607047642900F0B980732900F0FD816D
:1001B000002070471FB51FBD10B510BD00F010FA2C
:1001C0001146FFF7F7FF00F001FE00F02EFA03B42E
:1001D000FFF7F2FF03BC00F0B7FD000009488047BD
:1001E00009480047FEE7FEE7FEE7FEE7FEE7FEE719
:1001F000FEE7FEE7FEE7FEE704480549054A064B31
:10020000704700002D0B000831010008500100204C
:1002100050070020500300205003002070470000CA
:100220000FB4044910B503AA029800F0C3F910BC3A
:100230005DF814FB1C0000200FB41CB5074B06AA88
:100240007B4469460090059800F085F900206946D6
:1002500000F094F91CBC5DF814FB000039030000A9
:100260002DE9F0410E460446002020622046E16858
:10027000884730B3252805D0D4E901219047206A6A
:10028000401CF2E7E168204600278847050018D0A7
:10029000A5F14100192802D820354FF400673246F5
:1002A000294620462760FFF77DFF40B1012804D092
:1002B000F61D26F007060836D8E7361DD6E728468D
:1002C000DAE7206ABDE8F08170B50C460546012AE0
:1002D00005D02878800600D5EA69002302E00123D2
:1002E00005E05B1C934202D2E05C0028F9D1A869CA
:1002F000E618C01AA861286A184428622846AFF395
:10030000008004E0D5E9012114F8010B9047B442C4
:10031000F8D32846AFF3008070BD00002DE9F0410E
:100320000646002410687529314616A510D0AFF393
:100330000080002802DA404213A507E031688A07EE
:1003400001D512A502E0490704D511A5012401E059
:10035000AFF3008000210A2206F1240709E0B0FB78
:10036000F2FCB0FBF2F302FB1C003030785418466C
:10037000491C0028F3D123462A463046BDE8F04107
:1003800000F08AB8000000002D0000002B000000E3
:100390002000000040EA010370B59B072ED14FF00A
:1003A0000136042A2AD308C810C99D1B9D43121F79
:1003B00015EAC61517D0D8B2E1B2401A50EA056165
:1003C00010D198B2A1B2401A50EA05410AD123F0E7
:1003D0007F4024F07F41401A50EA052102D1180ED7
:1003E000A0EB146070BDA342DBD018BA21BA8842DA
:1003F00001D9012070BD4FF0FF3070BD0AB9002057
:1004000070BD10F8013B11F8014B63B1A3420AD152
:10041000521E08D010F8013B11F8014B1BB1A3424A
:1004200001D1521EEDD1181B70BD421E12F8013FC2
:10043000002BFBD111F8013B002B02F8013BF9D155
:1004400070474FF0000200B5134694469646203997
:1004500022BFA0E80C50A0E80C50B1F12001BFF47D
:10046000F7AF090728BFA0E80C5048BF0CC05DF8E3
:1004700004EB890028BF40F8042B08BF704748BF31
:1004800020F8022B11F0804F18BF00F8012B7047A5
:1004900070477047704770472DE9F0470D46994601
:1004A0009246044600F124080168880604D5E069F4
:1004B00021F01001216000E00120A84201DD471B6E
:1004C00000E00027A1697A1902EB0900081AA0616F
:1004D0002078C00602D42046AFF30080002608E052
:1004E000D4E901211AF806009047206A401C761CC6
:1004F00020624E45F4DB2078C0060AD52046AFF3D3
:10050000008006E0D4E9012130209047206A401C99
:100510002062381EA7F10107F4DC07E0D4E90121CD
:1005200018F805009047206A401C2062281EA5F19B
:100530000105F3DC2046AFF300802078000602D5E9
:100540000220BDE8F0870120FBE7000001694A1C9A
:1005500002610878704700B58FB0CDE90131002104
:10056000059105497944CDE9031011466846FFF726
:1005700077FE0FB000BD0000E5FFFFFF0A6802F83C
:10058000010B0A60704710B5436913B1AFF30080E7
:1005900001E0FFF799FE012010BD127800F124015F
:1005A0000A7000224A700122EDE711684FF0FF3215
:1005B000E9E70000074B70B50D467B44FFF7CBFF22
:1005C0000446284600F008F810B14FF0FF3070BD27
:1005D000204670BDF7070000007B00F080007047E8
:1005E000754600F029F8AE4605006946534620F0EE
:1005F0000700854618B020B5FFF7FEFDBDE8204096
:100600004FF000064FF000074FF000084FF0000BCE
:1006100021F00701AC46ACE8C009ACE8C009ACE881
:10062000C009ACE8C0098D4670470446AFF30080AE
:100630002046FFF7CCFD000000487047EC0000208A
:100640003822024902A0FFF7EBFDFEE73D0F00084C
:100650005B25735D5B25645D00000000622202493A
:1006600002A0FFF7DDBD00006D0F00085B25735D84
:100670005B25645D00000000F0B5CC78002204F03A
:100680000F03E40601D58C7823430C784FF00F0C50
:1006900014F0FF0F4FF0010E1BD005680E880EFA04
:1006A00002F42640A64210D196000CFA06F725EA7D
:1006B000070703FA06F5CE783D43282E02D0482ED0
:1006C00002D002E0446100E00461521C082AE5D334
:1006D00005600A88FF2A1CD94468002202F1080636
:1006E0000EFA06F50E882E40AE420ED196000CFA98
:1006F00006F7BC4303FA06F7CE783C43282E00D118
:100700004561CE78482E00D10561521C082AE5D3F8
:100710004460F0BD10B5054C0146204600F0B9F824
:100720002046BDE81040024900F0B3B80048004040
:100730002000002010B586B00121082000F03CF90F
:100740000121880400F02CF94FF48060ADF810000E
:1007500018208DF813000320204C8DF8120004A9F6
:100760002046FFF789FFE114ADF8101004218DF841
:10077000131004A92046FFF77FFF4FF41650009096
:100780000020ADF80400ADF80600ADF80800ADF8A3
:100790000C000C20124CADF80A006946204600F00F
:1007A00067FA4FF4A06000F0E3F827208DF81400FA
:1007B00001218DF815108DF816108DF8171005A869
:1007C00000F0A4F8012240F22551204600F038FA4A
:1007D0000121204600F004FA06B010BD000C0140D3
:1007E0000048004070B58EB006460C4615463421D0
:1007F0006846FFF726FE324619A16846FFF71CFD42
:1008000018A16846FFF711FE21466846FFF70DFE66
:1008100015A16846FFF709FE2046042213A1FFF741
:10082000B9FD90B129466846FFF7FFFD69460CA067
:10083000FFF7F6FC0E4C6946204600F02AF80D49F9
:10084000204600F026F80EB070BD0BA16846FFF7F9
:10085000ECFD29466846FFF7E8FD07A1E3E7000045
:10086000257300002E0000003D0000007478740025
:1008700000480040200000202200000010B504467F
:1008800000F050FA8021204600F0B4F90028F9D099
:1008900010BD70B50D46064600243046295DFFF7B1
:1008A000EDFF641C285D0028F7D14021304600F0A0
:1008B000A1F90028F9D070BD1622024902A0FFF765
:1008C000AFFCFEE7190F00085B25735D5B25645DD7
:1008D000000000002722024902A0FFF7A1FCFEE76A
:1008E0002B0F00085B25735D5B25645D0000000035
:1008F0000B22024902A0FFF793BC00000D0F000875
:100900005B25735D5B25645D0000000030B50F233F
:10091000C27801780125F2B1144A126801F1E02190
:1009200002F4E062C2F5E062120AC2F10404D340AC
:100930004278A24084781C401443220181F80024AC
:10094000007800F01F018D404009800000F1E02098
:10095000C0F8005130BD01F01F00854048098000FB
:1009600000F1E020C0F8805130BD00000CED00E047
:100970000249084302490860704700000000FA0578
:100980000CED00E06C22024902A0FFF749BC000018
:100990007E0F00085B25735D5B25645D0000000031
:1009A000044A0029D16901D0014300E08143D161AB
:1009B0007047000000100240044A0029916901D0EC
:1009C000014300E081439161704700000010024044
:1009D00030B5204A5168204B11F00C0103D0042996
:1009E00001D0082901D0036012E05168536801F476
:1009F00070114FF0020413F4803F04EB914102D0D8
:100A000053689B0301D5154B00E0134B594301601C
:100A100051680F2303EA1111114B5C5C0168E1403E
:100A200041605468072505EA14241C5D21FA04F48A
:100A30008460546805EAD4241B5DD940C1605268C3
:100A4000032303EA9232064B1B1F9A5CB1FBF2F1BF
:100A5000016130BD0010024000127A0000093D0023
:100A6000040000205822024902A0FFF7D9BB000071
:100A7000610F00085B25735D5B25645D000000006D
:100A80000CB50022264800920192016841F48031A1
:100A900001604FF4A063016801F4003101910099F5
:100AA000491C0091019911B900999942F3D101684B
:100AB000890333D5012101911A490A6842F01002D5
:100AC0000A600A6822F003020A600A6842F0020221
:100AD0000A604168416041684160416841F4806159
:100AE0004160416821F47C114160416841F4E811A2
:100AF0004160016841F08071016001688901FCD5A5
:100B0000416821F003014160416841F00201416008
:100B10004168C1F381010229FAD10CBD01920CBDDB
:100B20000010024000200240704700000F4810B53E
:100B3000016841F00101016041680D4A11404160C6
:100B400001680C4A11400160016821F480210160B4
:100B5000416821F4FE0141604FF41F018160FFF7FD
:100B60008FFF05494FF00060086010BD0010024083
:100B70000000FFF8FFFFF6FE08ED00E070B5154C31
:100B800040F22551204600F03CF800280ED02046C7
:100B900000F0C4F8104AC1B21088030406D444041B
:100BA0004FF0000306D50A2901D0138070BD40F430
:100BB00000400DE00D2909D0C0F30D04074D401C85
:100BC00080B229551080C728EFD870BD40F480400E
:100BD000108070BD00380140180000202400002063
:100BE0000029818902D041F4005101E021F4005133
:100BF000818170470246002012880A4200D00120FD
:100C0000704770B501F01F0501260024C1F342139F
:100C100006FA05F2012B0FD0022B0FD0838A4FEA80
:100C200011210088134206FA01F600EA060001D0FD
:100C300000B10124204670BD8389F0E7038AEEE706
:100C400010B5C1F3421301F01F040121A140012B93
:100C500007D0022B07D01430002A026805D00A43BF
:100C600004E00C30F8E71030F6E78A43026010BD6C
:100C700030B50446008A85B00D464CF6FF71084039
:100C8000E98801432182A0894EF6F3110840A98822
:100C90002A8911436A8902431143A181A08A4FF630
:100CA000FF410840A9890143A1826846FFF790FEF1
:100CB0001948844201D1039800E00298A1890904EF
:100CC00000EBC00101EB0010296801D5490000E0EC
:100CD0008900B0FBF1F06422B0FBF2F109010B09CD
:100CE0006FF018056B4300EB8300A3891D044FF0E0
:100CF000320306D503EBC000B0FBF2F000F00700B2
:100D000005E003EB0010B0FBF2F000F00F00084329
:100D1000208105B030BD0000003801408088C0F35C
:100D200008007047C1F308018180704749220249D9
:100D300002A0FFF775FAFEE74E0F00085B25735D12
:100D40005B25645D00000000704770B540F2DC5622
:100D5000B0FBF6F1CCB2B0FBF6F106FB110504E0F6
:100D6000304600F00DF8641EE4B2002CF8D1002DDE
:100D700004D02846BDE8704000F002B870BD000005
:100D80000B49498848434FF0E021486100238B61BB
:100D9000086940F0010008610869C20701D0C0037A
:100DA000FAD5086920F0010008618B6170470000E6
:100DB0001400002004490A885206FCD5024AC1B238
:100DC000121D1180704700000038014011A711A5C5
:100DD00010A64FF4A060FFF7CBFD00F02DF800F057
:100DE0003BF8FFF7A7FC4FF47A7414220A490BA0D2
:100DF000FFF716FA2A4631463846FFF7F3FC20463D
:100E0000FFF7A3FF08A0FFF785FC2046FFF79DFF33
:100E1000EBE7000074787400080F00085B25735D31
:100E20005B25645D000000007478742E7478743D56
:100E30002268656C6C6F22004FF0E020016921F0A0
:100E40000401016103480921017042F22831418007
:100E5000704700001400002030B587B00121042045
:100E6000FFF7AAFD01210420FFF7A6FD0121880359
:100E7000FFF7A2FD4FF40070ADF8100018208DF8B8
:100E800013001F4D03248DF8124004A92846FFF7D4
:100E9000F3FB2915ADF8101004218DF8131004A9E7
:100EA0002846FFF7E9FB4FF4E13000900020ADF851
:100EB0000400ADF80600ADF80800ADF80C000C20F9
:100EC000104DADF80A0069462846FFF7D1FE2520EF
:100ED0008DF814008DF815408DF8164001208DF81E
:100EE000170005A8FFF712FD012240F22551284600
:100EF000FFF7A6FE01212846FFF772FE07B030BDBE
:100F000000080140003801406D61696E004E4D4996
:100F10005F48616E646C6572004861726446617519
:100F20006C745F48616E646C6572004D656D4D61F7
:100F30006E6167655F48616E646C657200427573CF
:100F40004661756C745F48616E646C6572005573C0
:100F50006167654661756C745F48616E646C65724B
:100F6000005356435F48616E646C6572004465626D
:100F700075674D6F6E5F48616E646C657200506599
:100F80006E6453565F48616E646C657200000000C9
:100F9000B00F000800000020240000006C010008D1
:100FA000D40F0008240000202C070000880100084E
:100FB0000204060800000000010203040102030409
:100FC0000607080900000000000000000000000003
:040FD000FFFFFF0020
:0400000508000131BD
:00000001FF
