:020000040800F2
:1000000038080020F1010008951D0008811800083B
:10001000CD190008A5150008F12B0008000000000C
:10002000000000000000000000000000E9200008BF
:10003000C11500080000000009200008D1220008B6
:100040000B0200080B0200080B0200080B0200085C
:100050000B0200080B0200080B0200080B0200084C
:100060000B0200080B0200080B0200080B0200083C
:100070000B0200080B0200080B0200080B0200082C
:100080000B0200080B0200080B0200080B0200081C
:100090000B0200080B0200080B0200080B0200080C
:1000A0000B0200080B0200080B0200080B020008FC
:1000B0000B0200080B0200080B0200080B020008EC
:1000C0000B0200080B0200080B0200080B020008DC
:1000D0000B0200083D280008A1280008E1290008BB
:1000E0000B0200080B0200080B0200080B020008BC
:1000F0000B0200080B0200080B0200080B020008AC
:100100000B0200080B0200080B0200080B0200089B
:100110000B0200080B0200080B0200082523000850
:100120000B0200080B0200080B0200080B0200087B
:1001300000F002F800F04DF80AA090E8000C8244AC
:100140008344AAF10107DA4501D100F042F8AFF289
:10015000090EBAE80F0013F0010F18BFFB1A43F0A5
:1001600001031847004D0000204D0000103A24BF45
:1001700078C878C1FAD8520724BF30C830C144BF0C
:1001800004680C607047000000230024002500264E
:10019000103A28BF78C1FBD8520728BF30C148BFEA
:1001A0000B607047662904F04884642900F08C8055
:1001B000732900F08484002070471FB500F096FC7E
:1001C00004000020002103F021FDE0601FBD10B5F8
:1001D00010BD00F08FFD1146FFF7EFFF03F0D0FADE
:1001E00000F0ADFD03B4FFF7F2FF03BC03F069F8C4
:1001F0000948804709480047FEE7FEE7FEE7FEE7BB
:10020000FEE7FEE7FEE7FEE7FEE7FEE704480549F6
:10021000054A064B70470000D5220008310100084E
:10022000380200203808002038040020380400205C
:10023000704700000FB4044910B503AA029800F0FB
:1002400043FC10BC5DF814FB1C0000200FB41CB56F
:10025000074B06AA7B4469460090059800F005FC10
:100260000020694600F014FC1CBC5DF814FB000083
:100270003908000070B50C460546012A05D02878DB
:10028000800600D5EA69002302E0012305E05B1C3B
:10029000934202D2E05C0028F9D1A869E618C01A9E
:1002A000A861286A184428622846AFF3008004E059
:1002B000D5E9012114F8010B9047B442F8D3284640
:1002C000AFF3008070BD00002DE9F0410646002428
:1002D00010687529314616A510D0AFF300800028AC
:1002E00002DA404213A507E031688A0701D512A55A
:1002F00002E0490704D511A5012401E0AFF3008015
:1003000000210A2206F1240709E0B0FBF2FCB0FB51
:10031000F2F302FB1C00303078541846491C0028C8
:10032000F3D123462A463046BDE8F04100F031B90A
:10033000000000002D0000002B0000002000000045
:100340002DE9F05F894604464FF0000ADFF824B13A
:10035000FB44C0F820A02046E168884700287DD0F3
:10036000252806D0D4E901219047206A401C20624C
:10037000F1E700255F462046E168884720280646C9
:1003800007DB312E05D2B81910F8200C08B105434F
:10039000F1E7A80701D525F00405C4F81CA0002743
:1003A000C4F818A02A2E09D0304602F083FF38B3D3
:1003B00004EB8708303EC8F8186019E059F8041BB0
:1003C000204604EB87029161E1688847012F0646C9
:1003D00018D1E069002820DA25F020051DE0D8F8C2
:1003E000180000EB800006EB40003038C8F8180019
:1003F0002046E1688847064602F05CFF0028EED1FF
:10040000012F0AD02E2E08D12046E16888477F1C94
:100410000646022F45F02005C4DBA069002803DA58
:10042000404245F00105A061E80701D025F0100524
:10043000A6B1A6F14100192802D8203645F400657E
:100440004A463146204625604D46FFF7ABFE60B177
:10045000012807D0ED1D25F0070000E007E000F1BE
:10046000080978E705F1040975E730467AE7206A5C
:10047000BDE8F09FA648000040EA010370B59B0765
:100480002ED14FF00136042A2AD308C810C99D1B6B
:100490009D43121F15EAC61517D0D8B2E1B2401A13
:1004A00050EA056110D198B2A1B2401A50EA054154
:1004B0000AD123F07F4024F07F41401A50EA052101
:1004C00002D1180EA0EB146070BDA342DBD018BAA5
:1004D00021BA884201D9012070BD4FF0FF3070BDB4
:1004E0000AB9002070BD10F8013B11F8014B63B14F
:1004F000A3420AD1521E08D010F8013B11F8014B5B
:100500001BB1A34201D1521EEDD1181B70BD421E7A
:1005100012F8013F002BFBD111F8013B002B02F830
:10052000013BF9D170474FF0000200B513469446E5
:100530009646203922BFA0E80C50A0E80C50B1F13B
:100540002001BFF4F7AF090728BFA0E80C5048BF4F
:100550000CC05DF804EB890028BF40F8042B08BFED
:10056000704748BF20F8022B11F0804F18BF00F8E9
:10057000012B7047704770477047704710B500F007
:10058000B9FA006810BD10B5044600F0B3FA046073
:1005900010BD2DE9F0470D4699469246044600F1FC
:1005A00024080168880604D5E06921F01001216063
:1005B00000E00120A84201DD471B00E00027A169FF
:1005C0007A1902EB0900081AA0612078C00602D44B
:1005D0002046AFF30080002608E0D4E901211AF894
:1005E00006009047206A401C761C20624E45F4DBD2
:1005F0002078C0060AD52046AFF3008006E0D4E993
:10060000012130209047206A401C2062381EA7F14B
:100610000107F4DC07E0D4E9012118F80500904750
:10062000206A401C2062281EA5F10105F3DC20464B
:10063000AFF300802078000602D50220BDE8F087E5
:100640000120FBE770472DE9FF4F0C461E464FF097
:10065000FF378BB0D2E90001DDF860800A908A464E
:10066000C1F30A5505B93D46002108464FF0000088
:10067000BAF1000F00F4400005DA00EB80004FF4FF
:10068000400101EA50004FEA9059B9F1010F00DD35
:10069000B9460A9850EA4A000ED044F61050A5F226
:1006A000FF3545432F14B8F1000F1ED07542291EA7
:1006B0001EDDC9F100021CE0B8F1010F4FF000008F
:1006C00001D0302103E0F24305E02154401CB04248
:1006D000FBDB30460022002121540B99C1F8088031
:1006E000C1E900200FB0BDE8F08FBD1B6D1CDEE737
:1006F0004A4600DA694206A800F086FA06AB93E89B
:10070000070003AB83E8070050460A9900F05EFB40
:100710008DE80700A0F500501F3800900398002DC9
:1007200009DD42F21F014A46084403A903906846C6
:1007300000F0BDFD08E0A0F500504A461F3803A9AF
:100740000390684600F0C7FD8DE807000004000C28
:1007500003D04FF0FF30410800E01046B8F1000F21
:1007600003D00022009215461EE0751E05D400F04D
:10077000C5F9303262556D1EF9D5B34601220843E2
:1007800002D000227F1C04E02078302801D1002212
:100790007F1E002A099786D01DE0112D07DA00F090
:1007A000ADF9303262556D1C50EA0102F5D10843B3
:1007B00002D00098C8B10EE00021681E05E0235C5D
:1007C000625C63542254401E491C8142F7DBAB46F5
:1007D000A81B401E0990002004F80B000B98099AF2
:1007E000C0F80880C0E9002B7CE711264FF0000814
:1007F00059E72DE9F04F88460446D21D22F0070143
:1008000091B0D1E90001CDE90A0102F01DFA0246DA
:100810000B98C00F01D02D2007E02068810701D57B
:100820002B2002E0202101EAC000032A099001D018
:10083000072A05DB03464146204600F0A5F90BE1F7
:100840002078800601D5E06900E00620B8F1650F48
:10085000814606D0B8F1660F18D0B8F1670F70D195
:1008600031E00020B9F1110F009001DB112301E00C
:1008700009F101030AAA01A90CA8FFF7E4FEDDE9CA
:100880000C70002609F10105834647E001204B4624
:1008900000904FF000470AAA01A90CA8FFF7D3FE69
:1008A000DDE90DB00C995D46002610B909F1010093
:1008B0000D18B9EB050003D4C0F1FF3609F10105AD
:1008C000A5EB09002BE0B9F1010F01DA4FF00109A6
:1008D0000020B9F1110F0090484601DD112300E01E
:1008E00003460AAA01A90CA8FFF7ADFEDDE90C70CA
:1008F0004D4600268346207800070AD4AB4500DA2F
:100900005D4601A8012D04DD411911F8011C3029B3
:1009100007D04F4502DA17F1040F04DA01208246AE
:100920000FE06D1EEEE7002F02DCED1B3E4403E0FE
:10093000781CA84200DD7D1CB81B00F1010A4FF0B5
:1009400000472078000703D4AA4501DB4FF0FF3AA7
:100950000021B7F1004F0DF143088DF8431024D06A
:1009600002202B23002F01DA7F422D230A21021EB1
:10097000A0F1010000DC5FB197FBF1FC97FBF1F205
:1009800001FB1C7C17460CF1300C08F801CDEEE79A
:10099000A8F1010003702188090501D5452100E077
:1009A0006521A0F1010800F8011C09980FA9A1EB2D
:1009B0000807FF1D00B10120411901EBEA70A16990
:1009C0003844081A401EA0612078C00602D4204690
:1009D000AFF30080099828B1D4E901219047206A3B
:1009E000401C20622078C00622D52046AFF300804C
:1009F0001EE0002E04DBB34502DD01A8805D00E0AF
:100A00003020D4E901219047206A401C2062761CE6
:100A1000AAF101005FEA000A0AD100F067F8C06895
:100A20000168405CD4E901219047206A401C2062A3
:100A3000281EA5F10105DCDC07E0D4E9012118F846
:100A4000010B9047206A401C2062381EA7F1010765
:100A5000F3DC2046AFF30080032011B043E6000032
:100A600001694A1C02610878704700B58FB0CDE972
:100A700001310021059105497944CDE90310114662
:100A80006846FFF75DFC0FB000BD0000E5FFFFFF0B
:100A90000A6802F8010B0A60704710B5436913B188
:100AA000AFF3008001E0FFF7E5FB012010BD1278F5
:100AB00000F124010A7000224A700122EDE711685A
:100AC0004FF0FF32E9E70000074B70B50D467B445D
:100AD000FFF7CBFF0446284600F004F910B14FF0B1
:100AE000FF3070BD204670BD972C00000048704755
:100AF000F801002000487047D801002030B5B0F15F
:100B00000A024FEA900E71F100034EEA817EB0EBCB
:100B10000E0061EB91014FEA101E4EEA017E10EBD0
:100B20000E0041EB11114FEA102E4EEA016E10EB50
:100B30000E0041EB11214FEA104E4EEA014E10EB30
:100B40000E0041EB1141401841F100014FEAD00085
:100B500040EA41704FEAD10110EB80054FEA810471
:100B600044EA907444EB01046D1944EB0404521BF5
:100B7000A3414FF0000348BF0A3200D530BD401CEE
:100B800041F1000130BD00002DE9F0411F4604464F
:100B900003260168072A01F4006004DB08B116A5EA
:100BA00005E016A503E008B115A500E015A521F0A4
:100BB00010002060A069C01EA0610FB1401EA0619E
:100BC0002046AFF300804FB1D4E901213846904769
:100BD000206A401C2062C01C206206E0206AFAE7FE
:100BE000D4E9012115F8010B9047761EF8D2204672
:100BF000AFF30080BDE8F0814E414E006E616E00A3
:100C0000494E4600696E66002DE9F047814616465A
:100C10008AB0334878440DC88DE80D0030487844D8
:100C2000801C03AC0DC884E80D0041F69B300844DD
:100C3000372190FBF1F290FBF1F5A5F1800501FB66
:100C400012041B3C02D56442012000E00020DFF8C2
:100C500090A080460027FA44AAF1BE0A0DE0E00702
:100C600009D03246684607EB47010AEB810100F0E4
:100C700032FB8DE8070064107F1C002CEFD1184F69
:100C80007F44AC3F18E0E80714D007EB04100DF1E7
:100C9000180A90E80E008AE80E00C068F04201D100
:100CA00098190890324606A903A800F014FB03AB7C
:100CB00083E807006D10641C002DE4D132466946BC
:100CC000B8F1000F03A802D000F0F1FA01E000F043
:100CD00002FBC9E90001C9F808200AB0BDE8F087A5
:100CE00034420000007B00F08000704700487047ED
:100CF000D80100207546FFF7F9FFAE4605006946AA
:100D0000534620F00700854618B020B5FFF77EFA5D
:100D1000BDE820404FF000064FF000074FF00008FC
:100D20004FF0000B21F00701AC46ACE8C009ACE87D
:100D3000C009ACE8C009ACE8C0098D46704704465C
:100D4000AFF300802046FFF74DFA00004FF0013C62
:100D500050F8042B51F8043B9A4221D1A2EB0C032A
:100D6000934313EACC1317D150F8042B51F8043BEA
:100D70009A4215D1A2EB0C03934313EACC130BD187
:100D800050F8042B51F8043B9A4209D1A2EB0C0312
:100D9000934313EACC13DBD04FF00000704700BF41
:100DA000D01A01BAB1FA81F101F0180122FA01F06A
:100DB000CB40C1F12001DBB2C0B2C01A2CFA01F362
:100DC000D11A914311EAC311E6D170475FEA400C92
:100DD00008BF91F0000F4FEA8C234FEAC12243EA8B
:100DE00051514FEA1C5018BF00F5F0404FEA300057
:100DF00018BF41F000415FEA6C5C00F02980BCF153
:100E0000FF3F08BF40F080407047130C06BF12043C
:100E10004FF0100C4FF0000C130E04BF12020CF137
:100E2000080C130F04BF12010CF1040C930F04BF44
:100E300092000CF1020CD30F04BF52000CF1010C14
:100E400011464FF00002A0F11F00A0EB0C0070470C
:100E500011F0004F08BF704731F000413FF4D5AFAB
:100E60000B0C06BF09044FF0100C4FF0000C0B0EDA
:100E700004BF09020CF1080C0B0F04BF09010CF1AF
:100E8000040C8B0F04BF89000CF1020CCB0F04BFC4
:100E900049000CF1010CCCF12003A0EB0C0022FA6C
:100EA00003F302FA0CF241EA030100F1010070477A
:100EB00020F07F4C80EA030023F07F47ACEB070370
:100EC00003F57C5300F0004003F1FF032DE9804956
:100ED0004FEA154B09B44FEA144325EA0B4E24EAB6
:100EE00003480FF2042606EB132749083E785FEA11
:100EF000320203FB0667C7F5000707FB06F64FEA59
:100F000054374FEAD64606F1020607FB066CCCF1D1
:100F1000005C4FEA1C472CEA074C07FB06F40CFB6D
:100F200006F504EB15464FEA961634BF00204FF045
:100F300000404FEAD13706FB07FC4FEA1C4C0CFB84
:100F40000BF7D21B03FB0CF761EB07010CFB0EF751
:100F5000B0EB074072EB17420CFB08F734BFA2EB73
:100F60000742B2EB074261EB17414FEA0C444FEAEC
:100F7000910706FB07FC4FEA1C4C0CFB0BF7B0EB90
:100F8000C74072EB573203FB0CF734BFA2EBC742EA
:100F9000B2EBC74261EB57310CFB0EF7B0EBC70069
:100FA00072EB57720CFB08F734BFA2EBC702B2EB2F
:100FB000C70261EB5771039F4FEA816141EA9211C9
:100FC00004EBCC044FEAD1374FEA826206FB07FC00
:100FD00042EA90124FEA80604FEA1C4C0CFB0BF780
:100FE000D21B03FB0CF761EB07010CFB0EF7B0EB18
:100FF000074072EB17420CFB08F734BFA2EB074225
:10100000B2EB074261EB17414FEA8C554FEA91076B
:1010100004EB9C2406FB07FC4FEA1C4C0CFB0BF773
:10102000B0EBC74072EB573203FB0CF734BFA2EBB7
:10103000C742B2EBC74261EB57310CFB0EF7B0EB86
:10104000C70072EB57720CFB08F734BFA2EBC70264
:10105000B2EBC70261EB577115EB4C254FEA81618A
:1010600041EA92114FEA82624FEAD13742EA901286
:1010700006FB07FC44F100044FEA80604FEA1C4C79
:101080000CFB0BF7D21B03FB0CF761EB07010CFB0E
:101090000EF7B0EB074072EB17420CFB08F734BFBA
:1010A000A2EB0742B2EB074261EB174115EB1C15AF
:1010B0004FEA813141EA92414FEA823242EA90425C
:1010C0004FEA80304FEA0C7644F1000448EA0343CB
:1010D0004EEA0B484FF0000EB2EB080C71EB030721
:1010E00024BF624639464EEB0E0E4FF0000B00183F
:1010F000524149414BEB0B0BB2EB080C71EB030770
:101100007BF1000B24BF624639464EEB0E0E4FF0CA
:10111000000B0018524149414BEB0B0BB2EB080C92
:1011200071EB03077BF1000B24BF624639464EEB9F
:101130000E0E51EA020718BF46F0010616EB0E76B6
:1011400055F1000254F1000103D5BDE88901BDE865
:101150000088BDE88901BDE80048B619524141EB5D
:101160000101A3F10103704780807F7E7D7C7B7A43
:101170007978777676757473727171706F6E6E6D43
:101180006C6C6B6A6A6968686766666564646363E9
:1011900062616160605F5F5E5E5D5D5C5C5B5B5A6F
:1011A0005A595958585757565655555554545353DC
:1011B00052525251515050504F4F4F4E4E4D4D4D37
:1011C0004C4C4C4B4B4B4A4A4A4949494848484782
:1011D00047474746464645454544444444434343C0
:1011E0004342424242414141002B26D4770021D064
:1011F0001CB54FEA370703B44FF010004FF0100151
:101200004FF000000FBCBDE810400BF1010BBBF12B
:10121000010F08BF5FEA170722BF12F1010211F1A7
:1012200001014FF0004143F1000300F0004043EAA8
:1012300000007047F9D35708DAE746EA064613F18B
:10124000400F4FEA16461FDD13F1200FDFBF164394
:101250000A46002120335B42C8D0C3F1200746EA8A
:10126000064602FA07F74FEA164646EA0706C3F1B2
:10127000200722FA03F201FA07F721FA03F14FF0EF
:10128000000342EA0702B1E746EA020646EA0646DA
:101290004FEA164646EA0106BCBF46EA0646360C49
:1012A0004FF000034FF000024FF000019EE72DE9E0
:1012B000C048934630B491E8380007C831EA400C82
:1012C00048BF34EA430C03D5FFF7F2FDFFF78CFF6C
:1012D000F0BCBDE800882DE9C048934630B491E8E1
:1012E000380007C810F0804F08BF13F0804F03D1BB
:1012F00000F005F8FFF778FFF0BCBDE8008820F0AB
:101300007F4780EA030023F07F4C07EB0C03A3F533
:101310007C5300F00040A3F1FE0392F0000F00F0B8
:10132000B38095F0000F00F077802DE901494FEA76
:1013300011404FEA144621EA004800FB06FC24EA6B
:10134000064708FB06F607FB08F800FB07F718EB53
:1013500006484CEB164C4FEA124B18EB07484FEA85
:1013600015464CEB174022EA0B4E0BFB06FC25EA18
:1013700006470EFB06F607FB0EFE0BFB07F71EEB00
:10138000064E4CEB164C4FF000061EEB074E4CEB96
:10139000174B18EB0B0840F1000018EB0E0B58EB45
:1013A000000840F100008F1A4FF000013CBFC94314
:1013B000661B14BFB5EB040C00213CBFC943F61BF0
:1013C0004FEA17444EEA8E0E27EA04454FEA1C47BF
:1013D00004FB07622CEA074C05FB07F70CFB05F63C
:1013E00004FB0CFC16EB074642EB174216EB0C46CF
:1013F00042EB1C421BEB060658EB0202414146EA57
:101400009E0601D5BDE80189B619524141EB0101A3
:10141000A3F10103BDE801894FEA14454FEA1147E2
:1014200024EA054621EA074C05FB07F406FB07F70B
:101430000CFB06F105FB0CFC11EB074144EB1744D8
:101440004FEA124711EB0C4144EB1C4422EA074CD3
:1014500005FB07F206FB07F70CFB06F605FB0CFC89
:1014600016EB074642EB174216EB0C4642EB1C45C7
:101470006A1854F1000148BF7047B619524141EB58
:101480000101A3F10103704795F0000F37D04FEA37
:1014900011424FEA144721EA024624EA074C02FBB4
:1014A00007F106FB07F70CFB06F402FB0CFC14EB40
:1014B000074441EB17414FEA154714EB0C4441EB4D
:1014C0001C4125EA074C02FB07F506FB07F70CFB5E
:1014D00006F602FB0CFC16EB074645EB174516EB30
:1014E0000C4645EB1C42121951F1000148BF7047F0
:1014F000B619524141EB0101A3F1010370474FEAD4
:1015000014454FEA114724EA054621EA074C05FB3A
:1015100007F106FB07F70CFB06F24FF0000605FB90
:101520000CFC12EB074241EB174112EB0C4251EB62
:101530001C4148BF7047921841EB0101A3F1010320
:10154000704700001FB537208DF80C0003208DF880
:101550000D0001208DF80E008DF80F0003A800F09B
:1015600027FC0121202000F05DFD42F20F70ADF854
:1015700004004720ADF800000020094CADF806003B
:10158000ADF802006946204601F080F801221146BC
:10159000204600F062FF0121204600F048FF1FBDF9
:1015A00000140040AB22024902A0FEF743FEFEE712
:1015B000AA4B00085B25735D5B25645D000000009D
:1015C000D522024902A0FEF735BE0000DA4B000822
:1015D0005B25735D5B25645D00000000F0B5CC7891
:1015E000002204F00F03E40601D58C7823430C7825
:1015F0004FF00F0C14F0FF0F4FF0010E1BD00568D9
:101600000E880EFA02F42640A64210D196000CFA7B
:1016100006F725EA070703FA06F5CE783D43282E9C
:1016200002D0482E02D002E0446100E00461521C66
:10163000082AE5D305600A88FF2A1CD944680022DD
:1016400002F108060EFA06F50E882E40AE420ED1C3
:1016500096000CFA06F7BC4303FA06F7CE783C4333
:10166000282E00D14561CE78482E00D10561521C4C
:10167000082AE5D34460F0BD0246002092680A4281
:1016800000D00120704700000C480AA101600CA1A5
:1016900041600CA181600C300BA1016008A1416088
:1016A0000BA181600C300BA1016005A141600AA172
:1016B000816070476C656E6774680000540100209B
:1016C0007478740033350000616E676C650000004B
:1016D00030000000520000003330000010B5054C0F
:1016E0000146204600F0B9F82046BDE81040024906
:1016F00000F0B3B8004800402800002030B587B0A3
:101700000121082000F09AFC0121880400F08AFCE5
:101710004FF48060ADF8100018208DF81300224DB2
:1017200003248DF8124004A92846FFF757FFE91457
:10173000ADF8101004218DF8131004A92846FFF706
:101740004DFF4FF4165000900020ADF80400ADF8A6
:101750000600ADF80800ADF80C000C20134DADF8F4
:101760000A006946284601F0E5F94FF4A06000F050
:1017700051FB27218DF814108DF8154002208DF8AB
:10178000160001208DF8170005A800F011FB0122BA
:1017900040F22551284601F0B5F90121284601F013
:1017A0002FF907B030BD0000000C01400048004098
:1017B00010B58EB0044634216846FEF7B4FE1AA177
:1017C00068462268FEF742FD18A16846FEF79FFEB4
:1017D00068466168FEF79BFE15A16846FEF797FE16
:1017E000042214A16068FEF747FE90B1A168684624
:1017F000FEF78DFE69460CA0FEF71CFD0E4C6946F7
:10180000204600F02AF80D49204600F026F80EB0D8
:1018100010BD0BA16846FEF77AFE6846A168FEF788
:1018200076FE07A1E3E70000257300002E0000000C
:101830003D0000007478740000480040280000203B
:101840002200000010B5044601F0CEF980212046A8
:1018500001F032F90028F9D010BD70B50D460646EA
:1018600000243046295DFFF7EDFF641C285D002849
:10187000F7D14021304601F01FF90028F9D070BDA2
:101880008922024902A0FEF7D5FCFEE7864B00083C
:101890005B25735D5B25645D0000000038B50121A8
:1018A0000C2000F0CBFB2020ADF80000124D4824A6
:1018B0008DF8034069462846FFF790FE4021ADF8B9
:1018C00000108DF8034069462846FFF787FEE814AC
:1018D000ADF80000094D8DF8034069462846FFF732
:1018E0007DFEA914ADF800108DF803406946284626
:1018F000FFF774FE38BD0000000C014000080140F5
:1019000070B5304D002420212846FFF7B5FE012890
:101910000FD0142001F0F4FE20212846FFF7ACFE82
:10192000012806D020212846FFF7A6FE0028F9D07E
:10193000012440212846FFF79FFE01280FD01420E4
:1019400001F0DEFE40212846FFF796FE012806D072
:1019500040212846FFF790FE0128F9D102241A4DB4
:101960004FF4006631462846FFF786FE01280FD067
:10197000142001F0C5FE31462846FFF77DFE012800
:1019800006D031462846FFF777FE0128F9D1032417
:101990004FF4805631462846FFF76EFE01280FD0DF
:1019A000142001F0ADFE31462846FFF765FE012800
:1019B00006D031462846FFF75FFE0128F9D10424FE
:1019C000204670BD000C0140000801409A220249E7
:1019D00002A0FEF72FFCFEE7984B00085B25735D25
:1019E0005B25645D00000000704700002DE9F34FA7
:1019F0005B4C81B0E0680A30E06002F0A9FB4FF078
:101A00006632584B02F006FA02F016F901216060C6
:101A100003F075F802F016FE534A544B02F0E8FB4F
:101A200002F00AF9A060607802F092FB0022504BAD
:101A300001F058FD4F4A504B02F0DAFB02F0FCF87F
:101A40000546A06802F0FEFD02F028F880468946AF
:101A5000207802F07DFBDFF814B1DFF820A1ABF1B4
:101A60002F0B52465B4602F0C3FB0022444B02F0B0
:101A7000D1F901F0F7FD06460F46284602F0E2FDD7
:101A8000054632463B46009102F0B2FB42464B46C9
:101A900002F0AEFB02F0D0F88046A06802F0D2FD62
:101AA00001F0FCFF06460F46207802F051FB52463B
:101AB0005B4602F09DFB0022314B02F0ABF901F0D6
:101AC000EDFF02460B462846009902F091FB3B468B
:101AD000324602F08DFB02F0AFF80446404600F0BB
:101AE00015FA284D284600F00BFA274E304600F034
:101AF00001FA264F384600F0F7F9204600F07EFA4A
:101B0000284600F075FA304600F06CFA384600F0CE
:101B100063FA019800F096F90546029800F00AFA77
:101B20000446284601F0B6FF4FF448667742B042BB
:101B300004DD002D01DD354600E03D46204601F084
:101B4000A9FFB04204DD002C01DD344600E03C4634
:101B5000284600F02BFB2046BDE8FE4F00F02DBBD1
:101B60003400002066CD94406E861BF0F9210940B8
:101B70000080514012143FC6DCA54C406F1283C058
:101B800000806640000070429A99193F00409C46D0
:101B90002DE9F0410C46804602F0E8FD01F07AFFA5
:101BA0002D2847DA204602F0E1FD01F073FF2D28D1
:101BB00040DA002000F0AAF9204D284600F0A0F9F4
:101BC0001F4E304600F096F91E4F384600F08CF953
:101BD000002000F013FA284600F00AFA304600F020
:101BE00001FA384600F0F8F9404600F02BF90546B6
:101BF000204600F09FF90446284601F04BFF40F6CE
:101C0000B836B04204DD002D01DD354600E00E4D52
:101C1000204601F03FFFB04204DD002C01DD3446D8
:101C200000E00A4C284600F0C1FA2046BDE8F04129
:101C300000F0C3BABDE8F04100F022BB00007042E2
:101C40009A99193F00409C46F0F1FFFF48F4FFFFCE
:101C50002DE9F047414C80468946A0690A30A061D1
:101C600002F076FA4FF066323D4B02F0D3F801F005
:101C7000E3FF0121206102F042FF02F0E3FC394A58
:101C8000394B02F0B5FA01F0D7FF606102F0DAFCDF
:101C9000364A374B02F002F801F000FF05460E46C7
:101CA000A07802F055FA2A46334602F0A1FA01F074
:101CB000C3FF0746606902F0C5FC01F0EFFE054670
:101CC0000E46A07802F044FA2A46334602F090FA13
:101CD00001F0B2FF0446384600F018F9254D2846B9
:101CE00000F00EF9244E304600F004F9234F384638
:101CF00000F0FAF8204600F081F9284600F078F963
:101D0000304600F06FF9384600F066F9404600F0C2
:101D100099F80546484600F00DF90446284601F0BA
:101D2000B9FE4FF448667742B04204DD002D01DD74
:101D3000354600E03D46204601F0ACFEB04204DDF1
:101D4000002C01DD344600E03C46284600F02EFA27
:101D50002046BDE8F04700F030BA00003400002013
:101D600066CD94406E861BF0F92109406F1283C046
:101D7000CA21F93F000070429A99193F00409C46E1
:101D800010B500F025FD01F037FEBDE8104000F071
:101D900077BA00007E22024902A0FEF74BBA00008B
:101DA0007A4B00085B25735D5B25645D00000000D5
:101DB00030B50F23C27801780125F2B1144A1268B8
:101DC00001F1E02102F4E062C2F5E062120AC2F120
:101DD0000404D3404278A24084781C40144322017A
:101DE00081F80024007800F01F018D404009800038
:101DF00000F1E020C0F8005130BD01F01F00854027
:101E00004809800000F1E020C0F8805130BD00009A
:101E10000CED00E0024908430249086070470000E9
:101E20000000FA050CED00E005480021C1610162E7
:101E30000161416181610160C0E9021170470000E8
:101E4000880100202DE9F047244C216802F076FD3E
:101E5000814602F0F7FBD4E9022301F01FFF0022C4
:101E60001F4BC4E9020102F0C1FA02D200201C4952
:101E700008E0D4E9020100221A4B02F07DF903D2F6
:101E800018490020C4E902014846E16902F060FDFA
:101E90000146C4F81C90A06902F084FC02F0D2FB59
:101EA00005468846606902F0CDFBD4E9022302F0C2
:101EB0009FF906460F464946206902F073FC02F07E
:101EC000C1FB32463B4601F0E9FE2A46434601F09B
:101ED000E5FEBDE8F04702F0F5B8000088010020FB
:101EE00000F8A14000F8A1C00149886170470000D6
:101EF00088010020014948617047000088010020E6
:101F0000014908617047000088010020014908600C
:101F1000704700008801002005480021C16101626E
:101F20000161416181610160C0E9021170470000F7
:101F3000B00100202DE9F047244C216802F0FEFC9E
:101F4000814602F07FFBD4E9022301F0A7FE0022C4
:101F50001F4BC4E9020102F049FA02D200201C49D9
:101F600008E0D4E9020100221A4B02F005F903D27D
:101F700018490020C4E902014846E16902F0E8FC82
:101F80000146C4F81C90A06902F00CFC02F05AFB58
:101F900005468846606902F055FBD4E9022302F049
:101FA00027F906460F464946206902F0FBFB02F07E
:101FB00049FB32463B4601F071FE2A46434601F09A
:101FC0006DFEBDE8F04702F07DB80000B0010020D2
:101FD00000F8A14000F8A1C00149886170470000E5
:101FE000B00100200149486170470000B0010020A5
:101FF0000149086170470000B001002001490860F4
:1020000070470000B0010020DF22024902A0FEF765
:1020100011B90000EB4B00085B25735D5B25645D27
:1020200000000000044A0029D16901D0014300E00A
:102030008143D1617047000000100240044A00292A
:10204000916901D0014300E0814391617047000034
:102050000010024030B5204A5168204B11F00C01AD
:1020600003D0042901D0082901D0036012E051688F
:10207000536801F470114FF0020413F4803F04EB35
:10208000914102D053689B0301D5154B00E0134BDF
:102090005943016051680F2303EA1111114B5C5C35
:1020A0000168E14041605468072505EA14241C5D7D
:1020B00021FA04F48460546805EAD4241B5DD940F5
:1020C000C1605268032303EA9232064B1B1F9A5CDD
:1020D000B1FBF2F1016130BD0010024000127A0044
:1020E00000093D0004000020CB22024902A0FEF7B7
:1020F000A1B80000CE4B00085B25735D5B25645DD5
:10210000000000000CB500222648009201920168F0
:1021100041F4803101604FF4A063016801F40031A3
:1021200001910099491C0091019911B900999942B6
:10213000F3D10168890333D5012101911A490A6855
:1021400042F010020A600A6822F003020A600A687C
:1021500042F002020A6041684160416841604168A2
:1021600041F480614160416821F47C114160416823
:1021700041F4E8114160016841F08071016001683B
:102180008901FCD5416821F003014160416841F0BB
:10219000020141604168C1F381010229FAD10CBDFD
:1021A00001920CBD0010024000200240002801DD19
:1021B00000F020B8404200F007B8002801DD00F030
:1021C00047B8404200F02CB808494FF480520A60EA
:1021D0004B140A1F13605B0013605A000A60044925
:1021E000088003490831088070470000140C014042
:1021F0003804004008494FF480520A604B140A1D0D
:1022000013605B0013605A000A60044908800349A8
:102210000831088070470000100C0140380400406D
:10222000084A102111602021121F11600649402226
:102230000A6180224A610549088004490831088002
:1022400070470000140801400010014034040040B1
:10225000084A102111602021121D116006494022F8
:102260004A6180220A6105490880044908310880D2
:102270007047000010080140001001403404004085
:102280000F4810210160202101600E4900200880C4
:102290008A140D490A604A140A600A4A121D108005
:1022A0000A4A4023536180235361064A0832108052
:1022B00012140A6052000A6002490C31088070470B
:1022C0001408014034040040140C01400010014087
:1022D000704700000F4810B5016841F0010101602E
:1022E00041680D4A1140416001680C4A114001608B
:1022F000016821F480210160416821F4FE01416000
:102300004FF41F018160FFF7FDFE05494FF00060AB
:10231000086010BD001002400000FFF8FFFFF6FE4D
:1023200008ED00E02DE9F041334C0121204600F09A
:1023300088F801285ED10121204600F075F82F4869
:102340002F4C304D0078304E304FDFF8C4800128DC
:1023500006D0022804D003281AD0042846D12FE042
:10236000A06802F06FF92A46334602F081F801F0C6
:1023700063FC0546606802F065F93A46434601F0A1
:102380008DFC01F059FC2946BDE8F041FFF72EBB5A
:10239000A06802F057F92A46334602F069F801F0C6
:1023A0004BFC0546606802F04DF93A46434601F0A1
:1023B00075FC01F041FC2946BDE8F041FFF7E8BBA0
:1023C000A06802F03FF92A46334602F051F801F0C6
:1023D00033FC0546606802F035F93A46434601F0A1
:1023E0005DFC01F029FC2946FFF732FCBDE8F04115
:1023F000FFF7FABABDE8F081001400403000002079
:10240000300100200AD7A3703D0AFF3FAE47E17AB2
:1024100014AEEF3F0029018802D041F0800101E0B5
:1024200021F0800101807047C94301827047002973
:10243000018802D041F0010101E021F00101018099
:10244000704702460020138A92890B4202EA010279
:1024500002D0002A00D001207047002A828901D0D2
:102460000A4300E08A4382817047000030B5028C45
:1024700022F001020284028C8388048B22F0020283
:1024800024F073050C882C430D8915434A882A4390
:10249000114DA8420BD0114DA84208D0104DA842B2
:1024A00005D0104DA84202D00F4DA8420DD122F008
:1024B00008054A8923F440732A4322F004058A88D8
:1024C0002A438D891D43CB892B4383800483C9888C
:1024D0008186028430BD0000002C014000340140A0
:1024E000004001400044014000480140028B22F0BE
:1024F00008020A430283704770B5028C22F0100272
:102500000284028C8388048B0D8824F4E6464FF6FF
:10251000FF7404EA052535430E8922F0200204EAFF
:10252000061616434A8804EA02123243104EB0429D
:1025300002D0104EB04215D122F080064A8923F411
:10254000406304EA0212324322F040068A8804EA19
:10255000021232438E8904EA86061E43CB8904EABE
:102560008303334383800583C9880187028470BD58
:10257000002C014000340140028B4FF6FF7322F41F
:10258000006203EA012111430183704770B5028C98
:1025900022F480720284028C8388848B0D8824F05C
:1025A000730425430E894FF6FF7422F4007204EA87
:1025B000062616434A8804EA02223243104EB042ED
:1025C00002D0104EB04215D122F400664A8923F49D
:1025D000405304EA0222324322F480668A8804EAE5
:1025E000022232438E8904EA06161E43CB8904EA8E
:1025F0000313334383808583C9888187028470BD38
:10260000002C014000340140828B22F008020A4372
:102610008283704770B5028C22F480520284058C4C
:102620008288838B0C8823F4E6464FF6FF7303EA17
:102630000424344325F400560D8903EA0535354357
:102640004E8803EA06362E43094DA84202D0094DB2
:10265000A84205D122F480458A8903EA82122A43DE
:1026600082808483C988A0F84010068470BD000071
:10267000002C014000340140828B4FF6FF7322F49E
:10268000006203EA012111438183704730B502885B
:102690001B4C1C4DA0420DD0A8420BD0B0F1804F76
:1026A00008D0194B984205D0184B984202D0184BCD
:1026B000984203D122F070034A881A43154B98427E
:1026C00006D0154B984203D022F44073CA881A43AF
:1026D00002808A8882850A880285A0420AD0A842A0
:1026E00008D00E4A904205D00D4A904202D00D4AC1
:1026F000904201D1097A01860121818230BD00001A
:10270000002C01400034014000040040000800405B
:10271000000C004000100040001400400040014048
:10272000004401400048014070B588B040F60F6099
:10273000ADF8140001250024244EADF81050ADF87A
:102740001640ADF8124004A93046FFF79FFF602005
:10275000ADF80000ADF80250ADF80640ADF8084005
:1027600069463046FFF782FE08213046FFF7BEFE7D
:10277000ADF80250ADF8064069463046FFF7BCFEA2
:1027800008213046FFF7F8FEADF80250ADF80640DC
:1027900069463046FFF7FAFE08213046FFF734FF5E
:1027A000ADF80250ADF8064069463046FFF732FFFB
:1027B00008213046FFF760FF01213046FFF72AFE6F
:1027C00001213046FFF733FE08B070BD0004004021
:1027D00038B501210220FFF725FC01210C20FFF76D
:1027E0002DFC4020ADF8000018208DF803000320D8
:1027F000104C8DF8020069462046FEF7EFFE80215E
:10280000ADF8001069462046FEF7E8FE01200A4CAC
:10281000ADF8000069462046FEF7E0FE0221ADF863
:10282000001069462046FEF7D9FEBDE83840FFF7A4
:102830007BBF000000080140000C014070B5154C42
:1028400040F22551204600F03EF900280ED02046E7
:1028500000F0C6F9104AC1B21088030406D444043B
:102860004FF0000306D50A2901D0138070BD40F453
:1028700000400DE00D2909D0C0F30D04074D401CA8
:1028800080B229551080C728EFD870BD40F4804031
:10289000108070BD0038014018000020500000205A
:1028A0002DE9FC473B4C2021204600F005F900288B
:1028B0006ED0204600F094F9384B37495A78885446
:1028C00012B90878552863D1521CD0B258700B2821
:1028D0005ED1334C086820604868606008892081B8
:1028E0008046887AA07200205870607853284FD1B3
:1028F000608800B201F015FC6FF00E094A4602F044
:10290000D0F8DFF8A0A00022534601F071FC01F0DE
:1029100093F9254D0646A860A08800B201F001FC9D
:102920004A4602F0BEF80022534601F061FC01F075
:1029300083F907466860E08800B201F0F2FB4A467E
:1029400002F0AFF80022534601F052FC01F074F996
:1029500028600FFA88F001F0E4FB0022134B01F02D
:1029600059FA0022124B01F099F901F065F9114969
:102970000860384601F066FE04460D46304601F018
:1029800061FE02460B460CA0CDE90045FDF752FC66
:10299000BDE8FC87004400404701002030000020D3
:1029A0003C0100200080664030010020004075405E
:1029B0000020424024000020416E676C652E726F3B
:1029C0006C6C3A25302E32662C20416E676C652E79
:1029D00070697463683A25302E32660A0000000080
:1029E00010B5064C2021204600F066F8002804D0DF
:1029F0002046BDE8104000F0F3B810BD004800408C
:102A00000029818902D041F4005101E021F40051F4
:102A10008181704730B587B001210420FFF70EFB9C
:102A200001214804FFF7FEFA0424ADF810401820F5
:102A30008DF8130003201E4D8DF8120004A92846BE
:102A4000FEF7CCFD0821ADF810108DF8134004A955
:102A50002846FEF7C3FD00244FF4E1300090ADF8A6
:102A600008400C20134DADF80440ADF80A00ADF855
:102A70000640ADF80C406946284600F05BF8262079
:102A80008DF8140001218DF815108DF816408DF881
:102A9000171005A8FFF78CF9012240F225512846AE
:102AA00000F030F801212846FFF7AAFF07B030BD3B
:102AB00000080140004400400246002012880A42FB
:102AC00000D00120704770B501F01F0501260024D9
:102AD000C1F3421306FA05F2012B0FD0022B0FD0DF
:102AE000838A4FEA11210088134206FA01F600EAB0
:102AF000060001D000B10124204670BD8389F0E7B3
:102B0000038AEEE710B5C1F3421301F01F0401215F
:102B1000A140012B07D0022B07D01430002A0268F5
:102B200005D00A4304E00C30F8E71030F6E78A439A
:102B3000026010BD30B50446008A85B00D464CF6E3
:102B4000FF710840E98801432182A0894EF6F31104
:102B50000840A9882A8911436A8902431143A18147
:102B6000A08A4FF6FF410840A9890143A182684627
:102B7000FFF770FA1948844201D1039800E00298E7
:102B8000A189090400EBC00101EB0010296801D5FF
:102B9000490000E08900B0FBF1F06422B0FBF2F1E3
:102BA00009010B096FF018056B4300EB8300A38943
:102BB0001D044FF0320306D503EBC000B0FBF2F06A
:102BC00000F0070005E003EB0010B0FBF2F000F0AE
:102BD0000F000843208105B030BD000000380140DF
:102BE0008088C0F308007047C1F3080181807047F6
:102BF000BC22024902A0FDF71DFBFEE7BB4B00080B
:102C00005B25735D5B25645D0000000010B5044624
:102C1000FFF7EAFF80212046FFF74EFF0028F9D09A
:102C200010BD70B50D46064600243046295DFFF7FD
:102C3000EDFF641C285D0028F7D140213046FFF7E6
:102C40003BFF0028F9D070BD490050EAC12018BFF1
:102C500004204A0D18BF40F0010040F2FF72B2EBB1
:102C6000515F08BF40F00200012808BF05207047EF
:102C70002DE9F74F144694B00021C4E902111599CB
:102C8000079121F00045C9498D4206DC1599C4E938
:102C9000000117B00020BDE8F08FC549DFF814A38C
:102CA000A9423CDD0799C44E0029C44FC44A159976
:102CB000534619DD01F0DCFB554506D0C14AC24B35
:102CC00001F0D6FBC4E900010AE04FF0D352BE4B3D
:102CD00001F0CEFB32463B4601F0CAFBC4E90001DD
:102CE00017B00120BDE8F08F00F0D8FF554506D0A1
:102CF000B44AB54B00F0D2FFC4E900010AE04FF03E
:102D0000D352B14B00F0CAFF32463B4600F0C6FF3B
:102D1000C4E9000117B04FF0FF30BDE8F08FAB49B8
:102D2000A942159978DB21F0004183468846A84ADC
:102D3000A84B01F05DFA0022A74B00F0AFFF01F0B5
:102D4000C1F9099001F0EDF906460F469C4A534639
:102D500001F04EFA43465A4601F07EFB80468A4611
:102D6000984A994B3046394601F042FA2A0D01251E
:102D70000B924246534601F06FFB032DC4E900015C
:102D800039D00B98C1F30A51401A05EB451111399E
:102D9000814230DA9148C346784400EB0510CDF803
:102DA0000CA00C90D0E900233046394601F020FAFF
:102DB00002460B46049106905846039901F058FBD1
:102DC00080468A4602460B465846039901F050FB5E
:102DD000049B069A01F04CFB83460C9803913946FC
:102DE000D0E90223304601F003FA5A46039B01F072
:102DF0003FFB6D1CBDE707980028A2BF099817B0DC
:102E0000BDE8F08F616881F000416160099817B0FA
:102E10004042BDE8F08FFFE784461598C1F31301E7
:102E2000C0F30A50A0F2F5304FEA601800F01F0618
:102E3000C6F12000139000200690079041F4801EF8
:102E400005206D4676B1664A08EB00017A4452F8D7
:102E5000213002EB8101B3404A68139922FA01F153
:102E6000194305E05F4908EB0002794451F822104C
:102E7000A1FB0E27A1FB0C131A449A4234BF012375
:102E8000002303EB070A05EB8003D3E901B70F44E6
:102E90008F4234BF0121002193448B4411B19345EB
:102EA00002D903E0934501D2012100E00021C3E9EA
:102EB00001B7514445F82010011EA0F10100C1DC0A
:102EC0000298059F00F10050800F12900298DDE9F2
:102ED0000356800001F025F9834628460D9101F044
:102EE00037F96FF01D0201F0DCFDCDE90E0130462F
:102EF00001F02EF96FF03D0201F0D3FD80468A46C5
:102F0000384601F025F96FF05D0201F0CAFD074671
:102F100042465346119100F0C1FEDDE90E2300F058
:102F2000BDFE5A460D9B00F0B9FE00250E465A46DE
:102F300028460D9B01F09CFADDE90E2301F098FA7A
:102F40004246534601F094FA3A46119B01F084FA46
:102F5000DFF898A0244A534601F04AF9074688460C
:102F6000234A244B3146284601F042F93A4643466B
:102F700000F094FE074688464FF0A842534631467B
:102F8000284601F035F93A46434600F087FE159A87
:102F900012F0004F04D0129A81F000415242129276
:102FA000C4E90001129817B0BDE8F08FFB21E93F9A
:102FB0007CD90240FB21F93F7370032E8A19A33B91
:102FC000000040543163621A61B4D03DFB213941A5
:102FD00083C8C96D305FE43F0000E03F441F00003C
:102FE000C01E0000A21E0000182D4454FB21F93D14
:102FF0003326A611460B113C2DE9FF4D21F0004868
:1030000007460C46B8F1795F08DA01F05BF8002852
:1030100001BF0020324904B0BDE8F08D3A46234696
:103020001046194601F0E4F8054602462D480E46C2
:103030000B460621784400F05DF82A46334601F03D
:10304000D7F8DDE9022382468B463846214601F057
:10305000CFF804460F4652465B462846314601F0FB
:10306000C7F822463B4601F003FA07468A464FF06E
:10307000FF322846314601F014FD1B4A90450ADA1A
:103080003A46534601F0F4F904B00022BDE8F04D91
:10309000134B01F0E1B9154A4245A8BFA8F5001548
:1030A0004FF00004B8BF124D22462B4601F0E0F964
:1030B0000646884622462B460020094901F0D8F9E9
:1030C00004460D463A4653463046414601F0D0F993
:1030D00004B022462B46BDE8F04D01F0BDB900001A
:1030E0000000F03F701C00003333D33F0000E93F85
:1030F0000000D23F2DE9F0414F1E00EBC70104460E
:10310000D1E9000115461E4637F006020DD02A46C9
:10311000334601F06DF87F1E04EBC703D3E90023AB
:1031200000F0BCFD37F00602F1D1022F25D0042FAC
:1031300013D0062F18BFBDE8F0812A46334601F0B0
:1031400057F8D4E90A2300F0A9FD2A46334601F0D6
:103150004FF8D4E9082300F0A1FD2A46334601F0D8
:1031600047F8D4E9062300F099FD2A46334601F0DA
:103170003FF8D4E9042300F091FD2A46334601F0DC
:1031800037F8D4E9022300F089FD2A46334601F0DE
:103190002FF8D4E90023BDE8F04100F07FBD000026
:1031A0002DE9FF4D054621F0004084B00C46B0F1FA
:1031B000795F0BDA2846FFF747FD042808BF00F0C7
:1031C00071F8284608B02146BDE8F08D2A460B4626
:1031D000104601F00DF806460F462A46234601F038
:1031E00007F8804626488A4632463B460521784401
:1031F000FFF780FF83461098029160B3214A224B6B
:103200004046514600F0F4FFCDE900015A464046E1
:103210005146029B00F0ECFF82468846DDE906013C
:103220004FF0FF3201F03DFC5246434601F020F9D9
:1032300032463B4600F0DCFFDDE9062301F018F9D9
:10324000DDE9002301F014F908B02A462346BDE861
:10325000F04D01F001B90B465A463046394600F0B0
:10326000C7FF084A084B00F019FD4246534600F0DC
:10327000BFFF08B02A462346BDE8F04D00F00EBD62
:10328000B61B0000495555555555C5BF012201F0E3
:1032900008BC00F003BD002213461046114600F0A2
:1032A000B9BD0000024A0020110701F0FABB00007E
:1032B00001FDFFFF30380A2801D2012070470020AD
:1032C000704770472DE9F84F04460D4621F0004045
:1032D00000917349814211DC7249884201DC06D1B8
:1032E0002CB120462946BDE8F84FFFF7CFBF6E4806
:1032F000002DCCBF6D496E49BDE8F88F6D49814204
:1033000011DD6D498142D8BF4FF0FF366DDD20469B
:103310002946FFF799FC042808BFFFF7C3FF2046A2
:103320002946BDE8F88F6549654F25F00045814283
:1033300033DD6449814219DD002632464FF0804377
:103340002046294600F0AAFC80468A4601222046F3
:10335000294601F0A6FB00223B4601F089F84246CF
:10336000534600F057FD04460D463EE0012600227C
:10337000BA463B462046294600F090FC80460F4660
:10338000002253462046294601F072F842463B4649
:1033900000F040FD04460D4627E04B4981421BDD0D
:1033A000DFF828A10226002253462046294600F0D5
:1033B0001FFF00223B4600F071FC80460F460022B2
:1033C00053462046294601F053F842463B4600F05A
:1033D00021FD04460D4608E0032622462B46002028
:1033E0003B4900F017FD04460D4622462B46104689
:1033F000194600F0FDFE8B46824602460B4600F061
:10340000F7FE07460246334888460B4606217844B5
:10341000FFF770FE52465B4600F0EAFE82462E48F9
:103420008B463A46434605217844FFF763FE3A4609
:10343000434600F0DDFE02460B46002E504659463C
:103440000CDA00F02BFC22462B4600F0D1FE01B036
:1034500022462B46BDE8F04F00F0FEBF00F01EFCF8
:1034600022462B4600F0C4FE1C4A7A4402EBC603F7
:10347000D3E9002300F0FCFF22462B4600F0F8FFC2
:10348000174A7A4402EBC603D3E9002300F0E4FFB5
:10349000009A002AB8BF81F00041BDE8F88F000013
:1034A000000010440000F07F182D4454FB21F93F28
:1034B000FB21F9BF0000DC3F0000203E0000F33F8D
:1034C0000000F03F0000E63F008003400000F83FAE
:1034D0000000F0BF6618000024180000C2170000AA
:1034E0008A1700002DE9F04D9446CCF1000423F03A
:1034F00000464CEA0404524F46EAD4749A46884681
:1035000021F00042BC4206D8454240EA050442EAA6
:10351000D474BC4204D9BDE8F04D6246FFF7B9BE91
:10352000AAF14055A5F17F6555EA0C040BD00224A1
:1035300004EAAA74434DDFF810E144EAD87452EA71
:10354000000B04D00CE0BDE8F04DFFF7BBBE002C33
:1035500014BF012CBDE8F08D022C30D0032C32D0EA
:1035600056EA0C0B0AD0BE4220D1BA4209D126F04D
:10357000804622F080423346114617E000291ADBCC
:1035800025E0DFF8C8B0FB44002C04BFDBE90001F4
:10359000BDE8F08D012C02BFDBE9000181F00041A4
:1035A000BDE8F08D022C0AD0032C0CD0BA4212D107
:1035B000B8F1000F0BDA23482549BDE8F08D284605
:1035C0002449BDE8F08D28467146BDE8F08D1D48C0
:1035D0002149BDE8F08D921B12153C2AC4BF194841
:1035E0001D490EDCBAF1000FBEBF12F13C0F0020E6
:1035F000014606DB624600F00DFC21F00041FFF7BA
:1036000061FE002C08BFBDE8F08D012C04BF81F0E5
:103610000041BDE8F08D114A114B022C07D000F09B
:1036200027FF2A46BDE8F04D0A4B00F021BF00F00D
:103630001FFF2A46BDE8F04D064B00F00DBF00000D
:103640000000F07F182D4454FB2109C04E170000E4
:10365000FB21F9BFFB210940FB21F93F075C143333
:1036600026A6A13C00B5244B21F0004287B09A4227
:10367000DCBF0022134629DD204B9A4208D140B915
:103680004FF00100FCF77FFFFFF705FE07B000BD1C
:1036900003DBFFF7FBFD07B000BD02AAFFF7E8FA66
:1036A00010F0030104BF0DF1080C9CE80F000DD0D1
:1036B000012001290ED0022914D00DF1080C009030
:1036C0009CE80F00FFF76CFD07B000BDFFF794FC0E
:1036D00007B000BD0DF1080C00909CE80F00FFF74B
:1036E0005FFD05E00DF1080C9CE80F00FFF784FC7E
:1036F00007B081F0004100BDFB21E93F0000F07FF1
:1037000070B540F2DC56B0FBF6F1CCB2B0FBF6F18E
:1037100006FB110504E0304600F00CF8641EE4B22C
:10372000002CF8D1002D04D02846BDE8704000F0F0
:1037300001B870BD0B49498848434FF0E02148610A
:1037400000238B61086940F0010008610869C20725
:1037500001D0C003FAD5086920F0010008618B612F
:10376000704700001400002004490A885206FCD566
:10377000024AC1B2121D118070470000003801409A
:103780004FF4A060FEF746FB00F0D8F900F0E6F930
:10379000FDF7D8FEFEF7F4FAFEF746FBFEF7BCFB9A
:1037A000FFF738F9FEF77AF8FDF7A8FFFDF76CFF91
:1037B0006A4E042030706AA0FDF790FF6BA0FCF702
:1037C00039FDDFF8BCA16D4C4FF03C0BDFF8B49134
:1037D000DFF8B4811E270AF12405FEF791F80128CD
:1037E0001FD0022854D003287DD00428F5D167A02B
:1037F000FCF720FD30780228EFD1674908781E30A9
:10380000C0B20870B42800D90F705D480A7863A16F
:103810002430FCF71BFD5A480C30856058480C30AA
:1038200031E03078401CC0B23070062801D300204F
:103830003070C0B20628D0D2DFE800F003050E1ABF
:103840001C2857A100E059A12046FFF7EAF95A4980
:103850002046FFF7E6F9C0E758A12046FFF7E1F957
:1038600055492046FFF7DDF94548FDF7A1FFD5E7AB
:103870003BA1E9E754A12046FFF7D3F94E49204682
:10388000FFF7CFF967E0FDF793FFA6E751A1DBE76C
:1038900053A0FCF7CFFC3078022816D199F800002D
:1038A00049460A30C0B289F800003C2802D958467F
:1038B00081F800B0C2B2324838A12430FCF7C6FC0F
:1038C0002F48CAF80850FDF773FF3078042884D1D8
:1038D00098F800004146401DC0B288F800003C281E
:1038E00004D9584600E003E081F800B0C2B22AE0F3
:1038F0003EA0FCF79FFC3078022815D199F8000013
:1039000049460A38C0B289F800001E2800D20F705C
:103910001B4899F8002021A12430FCF797FC184897
:10392000CAF80850FDF744FF3078042893D198F87E
:1039300000004146401FC0B288F800001E2800D297
:103940000F7098F800200E4814A12430FCF77EFC7C
:103950000B48183085600A48183094E73000002082
:1039600070616765206D6F64653300007573617207
:10397000743120746573740A000000000048004030
:103980005401002035000020360000206B6579349A
:103990002072696E670A0000340000202564000070
:1039A00070616765206D69616E0000007061676518
:1039B000206D6F64653100002C0000207061676528
:1039C000206D6F646532000070616765206D6F6403
:1039D0006534000070616765206C617374000000DD
:1039E0006B6579322072696E670A00006B65793306
:1039F0002072696E670A000038B501211C20FEF7AD
:103A00001DFB1020ADF800008DF8030003201E4CB4
:103A10008DF8020069462046FDF7E0FD2021ADF853
:103A2000001069462046FDF7D9FDA014174CADF8EB
:103A3000000069462046FDF7D1FD6114ADF8001085
:103A400069462046FDF7CAFD4021114DADF8001032
:103A500069462846FDF7C2FD8021ADF80010694691
:103A60002846FDF7BBFD4FF48040ADF800006946E5
:103A70002046FDF7B3FD4FF40040ADF80000694665
:103A80002046FDF7ABFD38BD00080140000C0140A9
:103A900000100140002800DA4042704700B5254B75
:103AA00021F0004287B09A4203DC002213460092C4
:103AB0002BE0214B9A4208D140B94FF00100FCF7AE
:103AC00062FDFFF7E8FB07B000BD03DBFFF7DEFB9D
:103AD00007B000BD02AAFFF7CBF810F003014FF0CA
:103AE00001000DD0012914D002291AD00DF1080CC3
:103AF0009CE80F00FFF780FA07B081F0004100BD9D
:103B00000DF1080C00909CE80F00FFF749FB07B08F
:103B100000BD0DF1080C9CE80F00FFF76DFA07B02F
:103B200000BD0DF1080C00909CE80F00FFF738FB7A
:103B3000E2E70000FB21E93F0000F07F4FF0E020CA
:103B4000016921F00401016103480921017042F279
:103B500028314180704700001400002030B587B044
:103B600001210420FEF76AFA01210420FEF766FA1B
:103B700001218803FEF762FA4FF40070ADF81000DF
:103B800018208DF813001F4D03248DF8124004A94E
:103B90002846FDF723FD2915ADF8101004218DF8F6
:103BA000131004A92846FDF719FD4FF4E1300090E9
:103BB0000020ADF80400ADF80600ADF80800ADF83F
:103BC0000C000C20104DADF80A0069462846FEF79F
:103BD000B1FF25208DF814008DF815408DF81640A2
:103BE00001208DF8170005A8FEF7E2F8012240F247
:103BF00025512846FEF786FF01212846FEF700FFE3
:103C000007B030BD000801400038014010B5002960
:103C10000AD00878002807D005487844FDF796F8C0
:103C2000002801D0002010BD0248784410BD0000DB
:103C30006A1200006212000021F00042A2F16052FC
:103C4000B2F5801F01F0004328BFD2F17F6C0BD981
:103C50005FEA001C43EAC20242EB507018BF704793
:103C600028BF20F001007047B2F5801FBCBF184686
:103C700070474FEA410C1CF5001F02D2084600F0C5
:103C800058BE70B500F05EFB00000089FFF7F6BF7C
:103C90004FF00040A0F580007047000010B591EA99
:103CA000030F48BF83F0004300F1EA83841A71EBED
:103CB000030C05D2121943EB0C03001B61EB0C0142
:103CC000DFF824E14FEA1154A4EB135C1EEA430F22
:103CD00018BF9EEA445F73D023EA0E03DCF1200E86
:103CE00021EA045143F4801332D322FA0CFE10EB84
:103CF0000E0023FA0CFE41EB0E01CCF1200E03FA6C
:103D00000EFE10EB0E0051F10001B1F5801FCCF159
:103D1000200E32D201EB045112FA0EF2BDE810402F
:103D200058BF7047401C38BF5FEA420218BF704757
:103D3000002814BF20F0010041F100014FEA4103C7
:103D400013F5001F38BF7047A1F1C04100F048BB18
:103D5000012A43EB0302ACF1200CDCF11F0E32BF51
:103D60004FF0000E23FA0CF310EB030041EB04516B
:103D7000B4EB115FD0D0A1EB045101F580114908DB
:103D80005FEA300001EB04510ED350F1000038BF60
:103D900012FA0EFE08D1BDE81040C9E7401C38BF3A
:103DA0005FEA4202CAD1C3E7BDE810404FEA4103CF
:103DB00013F5001F38BF7047A1F1C04100F010BBE0
:103DC0009EEA445F08D011EA5E0FBDE8104004BFD0
:103DD00001F0004100207047BDE8104070B500F0D0
:103DE000B1FA00BF64FBBE3E0000E0FF02494FF0A5
:103DF000000000F024BE00BF0000F87F491058BF4B
:103E0000C1F140415B1058BFC3F140438B42EFF317
:103E1000008070472DE9C04130B4DFF8A0C23CEA11
:103E2000111418BF3CEA131400F0EC8081EA03057A
:103E30001CEA111444EAD57418BF1CEA131500F0EB
:103E4000C780A4EB05044FF0004545EAC12145EACF
:103E5000C32341EA505143EA525304F17F7499421B
:103E600004F500344FEAC0204FEAC22208BF904256
:103E700000F09C804FEA13650FF24016765D4FEA22
:103E8000134506FB05F7C7F1807706FB07F74FEAF6
:103E9000D737A7FB03687642C8F58038A7FB06CE64
:103EA00038BFA8F1010807FB08E64FF0000EA6FB9B
:103EB000028CE6FB03CEDCF1000CCEF1004E38BFE5
:103EC000AEF1010EA6FB0C584FF000074FF00005B5
:103ED000E6FB0E87A1FB08C6A0FB07CE16EB0E067D
:103EE00045F10005E1FB076515F1E04E7EBFA4F545
:103EF00080345FEA46066D4116F1800745F1000502
:103F00004FEA17274FEA066647EA0567A6F1DE463D
:103F1000B6F1805F4FEA15251FD9384624F0010C11
:103F200005EBC471BCF1FE6F01EB0C1102D8F0BCC3
:103F3000BDE8008124425CBF01F5801E9EEAC47F7B
:103F400002D4F0BCBDE80081244238D4F0BCA1F119
:103F5000C041BDE8004100F043BA4FEAD22242EA34
:103F600043524FEAD323A7FB02864FEAD02040EA10
:103F7000415007FB03661EEA0E0F4FEAD12105FBF5
:103F8000026658BFA6EB0056B6EB00564FEA520E3B
:103F90004EEAC37E18EB0E0E56EB530EBDD518EB52
:103FA00002085E417F1C55F10005B6E74FF480150D
:103FB0004FF000074FF000064FF00008ADE7F0BCEF
:103FC0004FF0000001F1C04101F00041BDE8008167
:103FD00011EA0C1F0CEA131500D00CE013EA0C1FB9
:103FE00000F025804FF00000F0BC81EA030101F0F1
:103FF0000041BDE80081F0BCBDE8004181EA030159
:1040000000F0EEB9F0BCBDE8004170B500F09AF9DF
:10401000097EFC3E00F007B881EA03014FF0000082
:1040200001F00041704781EA030100F0D9B9F0BC0A
:10403000BDE800414FF0000021497047FFFDFBF94A
:10404000F7F5F4F2F0EEEDEBE9E8E6E4E3E1E0DECB
:10405000DDDBDAD8D7D5D4D3D1D0CFCDCCCBCAC83D
:10406000C7C6C5C4C2C1C0BFBEBDBCBBBAB9B8B764
:10407000B6B5B4B3B2B1B0AFAEADACABAAA9A8A857
:10408000A7A6A5A4A3A3A2A1A09F9F9E9D9C9C9B25
:104090009A999998979796959594939392919190D0
:1040A0008F8F8E8E8D8C8C8B8B8A89898888878761
:1040B0008685858484838382828181800000FF07D6
:1040C0000000F87F4FEA41034FEA5353A3F58063A2
:1040D000D3F11E03C8BFD3F1210C0CDD4FF0004219
:1040E00042EAC12242EA505232FA03FC8CEAE17CF5
:1040F000ACEBE1707047102BC4BF0020704703F594
:10410000787CBCF1FF3F04D06FF0004282EA2100CE
:10411000704770B500F016F949922480002070476E
:10412000F2E710F0004248BF4042B0FA80F310FAC4
:1041300003F10AD0C3F11D0303F580634FEA415038
:1041400002EB035202EBD12170474FF000007047A1
:10415000B0FA80F310FA03F10AD0C3F11D0303F59E
:1041600080634FEA41504FEA035202EBD12170477E
:104170004FF000007047000051EA030C17D41CF503
:10418000801F58BFBCF5801F00F10680994218BF00
:10419000704708BF9042704707D711F5801F58BF7E
:1041A00013F5801F19D499427047894270471CF556
:1041B000801F08D5BCF5801FF7D58B4218BF70470C
:1041C00008BF824270474FF4001C1CEB410F38BF00
:1041D0001CEB430F01D28B42704770B500F0B2F870
:1041E000922449004FF000514FF08053FFF706BE74
:1041F000DFF848C170B51CEA111E1EBF1CEA13157A
:104200009EEA0C0F95EA0C0F00F06F8081EA030420
:1042100023EA4C134EEAD47E21EA4C1141F480117A
:1042200043F48013AE44A1FB024CA0FB0365AEF146
:104230007F7E361955EB0C05A1FB034C4CF10003B6
:10424000A0FB021C16EB0C06654153F1000309426A
:1042500018BF46F0010613F4007F0BD14FEA03317B
:104260004FEA0530340341EA155140EA16506FF029
:1042700003020AE04FEAC3214FEAC520F40241EAF3
:10428000555140EA56506FF0020202EB2E4201EB0C
:10429000025585EACE710AD05FEA440C18BF24F0BB
:1042A000004450F1000041F1000120EAD47040F2D6
:1042B000FE7C624500D270BDA84214BF4FF080441E
:1042C0004FF04044002E08BF0024BEF1806FA8BF0D
:1042D000A1F1C041BDE8704080F282804FF0000043
:1042E00001F1C04101F0004170479EEA0C0F0CEA59
:1042F000131518BF95EA0C0F06D04FF0000081EAA5
:10430000030E0EF0004170BD00F01CF88900013E64
:1043100000F007B800F009B84FEA430C5FEA5C5CB4
:1043200008D081EA030100F05BB84FEA410C5FEA74
:104330005C5CF6D14FF00000014970470000FF07B8
:104340000000F87F0EF1020E2EF0030E5EF8046BF3
:10435000364205D4012A43EB030515F5001F12D898
:10436000012841EB010C1CF5001F0CD80ED14FEABF
:10437000D17C15F5001F0CEB4C0C0CF1020C08BFA6
:104380004CEBD37C04E04FF0080C01E04FEAD37C07
:104390000CEB4C0526FA05F606F00706B6F1040C00
:1043A00006D20EEB860CBDE870404CF0010C604765
:1043B000DFE80CF0090B02024FF000414FF0000063
:1043C000A1F5002170BD19461046012851EB0104EA
:1043D00018BFD4F5001484BF002001F0004170BD67
:1043E0000808A0F500114FEA3101704753EA010CAB
:1043F00017D41CF5801F58BFBCF5801F00F1068044
:104400008B4218BF704708BF8242704707D713F529
:10441000801F58BF11F5801F19D48B4270479B42F3
:1044200070471CF5801F08D5BCF5801FF7D5994251
:1044300018BF704708BF904270474FF4001C1CEB38
:10444000430F38BF1CEB410F01D2994270470FB4A4
:104450000CBC03BCFFF7C1BE91EA030F10B581F09D
:1044600000413FF523AC83F0004300F009B80000A1
:1044700010B591EA030F48BF83F000433FF516AC37
:10448000841A71EB030C07D212198CF0004C43EB29
:104490000C03001B61EB0C01DFF8A4E14FEA11549F
:1044A000A4EB135C1EEA430F18BF9EEA445F00F0C2
:1044B000B08023EA6E03524221EA0451C3EB6E033B
:1044C00038BF5B1EDCF1200E25D322FA0CFE10EB68
:1044D0000E0043FA0CFE41EB0E01CCF1200E03FA64
:1044E0000EFE10EB0E0051F10001CCF1200E29D48C
:1044F00012FA0EF201EB0451BDE8104058BF7047AC
:10450000401C1CBFB2F1004F704700280CBF491C73
:1045100020F00100704712EB020E43EB030218BFBC
:104520004FF0010E4EEA4202ACF1200CDCF11E0EFF
:1045300054D943FA0CFE10EB0E0051F1FF31CCF1CF
:104540001E0ED5D50EF1010E12FA0EFE404141EBC2
:10455000010101EB445C5FEA5C5C10D910EBDE709A
:1045600001EB045138BFBEF1004FBDE8104018BF49
:10457000704700280CBF491C20F00100704730D262
:104580004FEAD42C11F5001124F400641BD0B1FAC9
:1045900081F20B3AA41AA41ED2F12003914030FA02
:1045A00003F31943904001EBCC71002C01EB045153
:1045B000BDE81040A8BF704701F1C0414FF00000B6
:1045C00001F000417047B0FA80F310FA03F100D116
:1045D00010BDE41A173C4805C90AE4E701EB045191
:1045E00010BD491001EB0451BDE810404FEA300006
:1045F00002E04FF0000170474A0008BF0042F8D0C7
:10460000B2F5001F28BF704701F000414FF00000D5
:1046100070479EEA445F07D011EA5E0FBDE8104084
:1046200004BF002100207047BDE8104070B5FFF7BF
:1046300089FE00BF40DFF63E83F000411046704720
:104640000000E0FF43004FEAD30C4FEA3C0C43402C
:104650001FBF40070CF1605113F0FE4F70471CF074
:10466000006F03D100200CF0004170470CF00043B4
:1046700043EA507010B540EACC0000F014F900BFD6
:10468000000000924FEA0001FFF7AABE4FF0004180
:104690004FF00000A1F500217047000090EA010FE3
:1046A00048BF81F0004100F15A81421A3CBF801A94
:1046B00089184FEAD0524FF07F4C1CEA410FA2EB11
:1046C000D15318BF9CEA026F00F03B804FF0004CC2
:1046D0004CEA00204CEA012121FA03FC10EB0C0CFF
:1046E0001ED202F1FF325FEA1C2040EBC25038BFFD
:1046F00070471CF07F0F4FEA400C18BFBCF17F4F92
:1047000038BF7047C3F12003994008BF20F0010073
:10471000BCF17F4F38BF7047A0F1C04000F009B92D
:104720004FEA3C00000A40EBC25028BF1CF0FF0FCC
:104730004FEA400CE6D018BFBCF17F4F38BF70473E
:10474000EAE79CEA026F05D010EA5C0F08BF00F0B0
:104750000040704710B500F0A6F800BF64FBBE3EF5
:10476000014800F06CB900BF0000C07F41000B0E93
:10477000D3F19E0208D950F400034FEA032323FA31
:1047800002F048BF4042704710B500F08CF800BFFF
:1047900049922480002070476FF0004282EA200096
:1047A000704700004FF47F0C1CEAD0121EBF1CEAB9
:1047B000D11392EA0C0F93EA0C0F00F0478090EAB5
:1047C000010F48BF42F480724FF0004C4CEA0020C9
:1047D0004CEA012102EB0302A0FB0113A2F5000247
:1047E000002918BF43F001035B0028BF4FEA3303E1
:1047F00042EB22425FEA132C4CEBC2502EBFBCEBC3
:10480000436FB2F57C0F70474FEA036CBCF1004F69
:1048100008BF20F00100B2F57C0F38BF70470BD500
:1048200082F0FF0212F5803FC8BF704700F1C04020
:10483000D8BF00F00040704700F5000C5FEA4C0C58
:1048400048BF7047B0F1C04000F073B890EA010F64
:104850000CEAD11348BF42F48072624538BF634509
:1048600004D280EA010000F00040704710B500F06B
:104870001AF800BF8900013E00F007B800F009B83F
:104880005FEA410C5FEA1C6C08D080EA010000F08E
:1048900050B85FEA400C5FEA1C6CF6D14FF0004064
:1048A000A0F5800070470EF1020E2EF0030E5EF8A8
:1048B000044B244204D44FEA4102B2F17F4F11D895
:1048C0004FEA4003B3F17F4F0CD80ED14FEAD07CB2
:1048D000B2F17F4F0CEB4C0C0CF1020C08BF4CEB0F
:1048E000D17C04E04FF0080C01E04FEAD17C0CEBE6
:1048F0004C0324FA03F404F00704B4F1040C06D2C8
:104900000EEB840CBDE810404CF0010C6047DFE872
:104910000CF0070802024FF00040A0F5800010BD27
:104920000846420018BFD2F1807288BF00F00040F4
:1049300010BDFF2141EAD050C005704780F0004013
:1049400090EA010F7FF5B1AE81F0004100F007B8A9
:1049500090EA010F48BF81F000413FF5A6AE421A30
:1049600004D882F00042A0EB020011444FEAD0527A
:104970004FF07F4C1CEA410FA2EBD15318BF9CEAC9
:10498000026F4AD04FF0004C4CEA00204CEA012163
:1049900021FA03FCB0EB0C0C0FD412F0FE0F36D052
:1049A0005FEA4C001DD5001240EBC25038BF704783
:1049B0001CF03F0F18BF70470BE0A2F101025FEA45
:1049C0001C2040EBC25038BF70471CF07F0F18BF4F
:1049D0007047C3F12003994014BF401E20F001002E
:1049E000704780084FEA122308BF7047B0FA80FC76
:1049F000A2EB0C02CCF1280C60FA0CF093EA122F17
:104A000004BF00EBC25070474FEAC3707047130AEF
:104A10005FEADC1008BF7047F6E79CEA026F04D03B
:104A200010EA5C0F08BF0020704710B5FFF73BFF8E
:104A300040DFF63E81F000407047FBF7DABE0CF035
:104A40000F03092B08BF082000F07F800A2B0BD032
:104A5000082B18BF704708BF1CF0400F0AD04FF05A
:104A600000004FF0000170471CF0400F18BF4FF0DE
:104A7000004070471CF0100F08D020F0704300F089
:104A80007F4242EAD3014FEA4370704700F0604032
:104A900021F07F4242EA000201F07F4040EA72705A
:104AA00070474FF0FF0C4CF4E06C1CEA11531CBF34
:104AB0009CEA030C9445C2BFDA4201EB02517047F5
:104AC000002B0DD0BCF1000F0FD0002A01F00041E7
:104AD000A4BF41F0E04141F07F614FF0000070471A
:104AE00001F000414FF00000704750EA01334FF0F1
:104AF0009B0C18BF4CF0806C7FF478A970474FF086
:104B0000FF0212EAD0521CBF92F0FF038B42C2BFD9
:104B1000D14200EBC1507047002A0AD0002B0BD0C5
:104B2000002900F00040A4BF40F0FE4040F4000027
:104B3000704700F00040704743024FF00B0C18BF65
:104B40004CF0806C7FF40CAE70471CF4801F11D0C9
:104B50001CF4E02F03D06FEACC31490070474FF0CE
:104B60004050EFF3008222F0704242EA000282F3EA
:104B7000008870474FF0000070474E4D495F486114
:104B80006E646C657200486172644661756C745F36
:104B900048616E646C6572004D656D4D616E616754
:104BA000655F48616E646C6572004275734661753D
:104BB0006C745F48616E646C657200557361676503
:104BC0004661756C745F48616E646C657200535623
:104BD000435F48616E646C65720044656275674D41
:104BE0006F6E5F48616E646C65720050656E6453F1
:104BF000565F48616E646C65720004000008000036
:104C00000000000000020001000010000000000091
:104C10004FBB610567ACDD3F182D4454FB21E93FD4
:104C20009BF681D20B73EF3F182D4454FB21F93FC3
:104C3000E2652F227F2B7A3C075C143326A6813C49
:104C4000BDCBF07A8807703C075C143326A6913CF4
:104C5000C4EB98999999C9BF711623FEC671BCBF60
:104C60006D9A74AFF2B0B3BF9AFDDE522DDEADBFC8
:104C70002F6C6A2C44B4A2BF0D5555555555D53FE0
:104C8000FF8300922449C23F6E204CC5CD45B73FFB
:104C9000513DD0A0660DB13FEB0D76244B7BA93F73
:104CA00011DA22E33AAD903F4C5555555555A53F85
:104CB0007751C1166CC156BF9015CB19A001FA3EB1
:104CC000AD529C804F7E92BEC4B1B4BD9EEE213EDB
:104CD000D43888BEE9FAA8BD00000000000000003A
:104CE00000004054FB21F93F3163621A61B4D03DAA
:104CF0000000601A61B4D03D7370032E8A19A33B83
:104D00000000002E8A19A33BC14920259A837B39D4
:104D100000000000000000006E83F9A22915444E37
:104D2000D15727FCC0DD34F5999562DB4190433CB7
:104D3000AB6351FE61C5BBDE3A6E24B7E0D24D4293
:104D4000EA2E49061C92D1091CEB1DFE3EA729B193
:104D5000F53582E88444BB2E26709CE9417E5FB421
:104D600039D69139F43953838B5F849C3B28F9BD44
:104D7000FF97F81F0F9805DE8B112FEF1F6D0A5A52
:104D8000CF7E366DB709CB27663F464F2DEA5F9E33
:104D9000C7BA27757BF1E5EBF739073DEA92528AEE
:104DA000B15FFB6B085D8D1FA6F810111111813FDB
:104DB000D561C119A0012ABF7DFEB157E31DC73ED1
:104DC000EB9C2B8AE6E55ABE7CD5CF5A3AD9E53D15
:104DD00002400000000000A00000000005400000AC
:104DE000000000C8000000000C4000000000409CD3
:104DF00000000000194000000020BCBE00000000C0
:104E000034400000BFC91B8E00000004B540000004
:104E1000504BCFD06607E2CF010000006C4100008C
:104E20003E8251AADFEEA73401000000D942000003
:104E3000DCB5A0E23A301F97FFFFFFFFB44500004A
:104E4000FD25A0C8E9A3C14FFFFFFFFFFF3F000002
:104E50000000008000000000FF3F00000000008014
:104E600000000000A04E00080000002050000000DC
:104E70006C010008F04E000850000020E807000018
:104E8000880100081C00000043000000F8FFFFFF3D
:104E90000C0000000E0000000F0000002E000000BB
:104EA00002040608000000000102030401020304DA
:104EB00006070809000000000000000000000000D4
:104EC0000000000000000000FFFFFF00FFFFFF00E8
:104ED00001000000001E1E00000000000000000095
:104EE00000000000000000000000000000000000C2
:0400000508000131BD
:00000001FF
