:020000040800F2
:1000000008080020F1010008851A000859150008A9
:10001000A91600087514000829290008000000002E
:10002000000000000000000000000000D91D0008D2
:100030009114000800000000F91C0008C11F00080E
:100040000B0200080B0200080B0200080B0200085C
:100050000B0200080B0200080B0200080B0200084C
:100060000B0200080B0200080B0200080B0200083C
:100070000B0200080B0200080B0200080B0200082C
:100080000B0200080B0200080B0200080B0200081C
:100090000B0200080B0200080B0200080B0200080C
:1000A0000B0200080B0200080B0200080B020008FC
:1000B0000B0200080B0200080B0200080B020008EC
:1000C0000B0200080B0200080B0200080B020008DC
:1000D0000B02000869250008CD2500080B02000866
:1000E0000B0200080B0200080B0200080B020008BC
:1000F0000B0200080B0200080B0200080B020008AC
:100100000B0200080B0200080B0200080B0200089B
:100110000B0200080B0200080B0200081520000863
:100120000B0200080B0200080B0200080B0200087B
:1001300000F002F800F04DF80AA090E8000C8244AC
:100140008344AAF10107DA4501D100F042F8AFF289
:10015000090EBAE80F0013F0010F18BFFB1A43F0A5
:1001600001031847F848000018490000103A24BF5E
:1001700078C878C1FAD8520724BF30C830C144BF0C
:1001800004680C607047000000230024002500264E
:10019000103A28BF78C1FBD8520728BF30C148BFEA
:1001A0000B607047662904F04682642900F078806D
:1001B000732900F0ED83002070471FB500F0FEFBAF
:1001C00004000020002103F01FFBE0601FBD10B5FC
:1001D00010BD00F0F7FC1146FFF7EFFF03F088F9C0
:1001E00000F015FD03B4FFF7F2FF03BC02F005FFBA
:1001F0000948804709480047FEE7FEE7FEE7FEE7BB
:10020000FEE7FEE7FEE7FEE7FEE7FEE704480549F6
:10021000054A064B70470000C51F00083101000861
:10022000080200200808002008040020080400201C
:10023000704700000FB4044910B503AA029800F0FB
:10024000ABFB10BC5DF814FB1C00002070B50C4625
:100250000546012A05D02878800600D5EA690023E2
:1002600002E0012305E05B1C934202D2E05C00281F
:10027000F9D1A869E618C01AA861286A184428624A
:100280002846AFF3008004E0D5E9012114F8010B02
:100290009047B442F8D32846AFF3008070BD000009
:1002A0002DE9F0410646002410687529314616A54F
:1002B00010D0AFF30080002802DA404213A507E017
:1002C00031688A0701D512A502E0490704D511A5B6
:1002D000012401E0AFF3008000210A2206F1240787
:1002E00009E0B0FBF2FCB0FBF2F302FB1C00303083
:1002F00078541846491C0028F3D123462A46304634
:10030000BDE8F04100F0B3B8000000002D0000008F
:100310002B000000200000002DE9F05F8946044614
:100320004FF0000ADFF824B1FB44C0F820A02046BB
:10033000E168884700287DD0252806D0D4E901212E
:100340009047206A401C2062F1E700255F46204666
:10035000E16888472028064607DB312E05D2B81908
:1003600010F8200C08B10543F1E7A80701D525F0E6
:100370000405C4F81CA00027C4F818A02A2E09D030
:10038000304602F033FE38B304EB8708303EC8F83D
:10039000186019E059F8041B204604EB87029161AC
:1003A000E1688847012F064618D1E069002820DA65
:1003B00025F020051DE0D8F8180000EB800006EBC2
:1003C00040003038C8F818002046E16888470646E3
:1003D00002F00CFE0028EED1012F0AD02E2E08D1FB
:1003E0002046E16888477F1C0646022F45F020051D
:1003F000C4DBA069002803DA404245F00105A06192
:10040000E80701D025F01005A6B1A6F14100192892
:1004100002D8203645F400654A463146204625601C
:100420004D46FFF7BFFE60B1012807D0ED1D25F056
:10043000070000E007E000F1080978E705F104098A
:1004400075E730467AE7206ABDE8F09FCA440000AD
:10045000704770477047704710B500F0B3FA0068F6
:1004600010BD10B5044600F0ADFA046010BD2DE9D2
:10047000F0470D4699469246044600F1240801686B
:10048000880604D5E06921F01001216000E0012018
:10049000A84201DD471B00E00027A1697A1902EBA1
:1004A0000900081AA0612078C00602D42046AFF3E4
:1004B0000080002608E0D4E901211AF806009047E0
:1004C000206A401C761C20624E45F4DB2078C00672
:1004D0000AD52046AFF3008006E0D4E901213020A0
:1004E0009047206A401C2062381EA7F10107F4DC07
:1004F00007E0D4E9012118F805009047206A401C64
:100500002062281EA5F10105F3DC2046AFF3008030
:100510002078000602D50220BDE8F0870120FBE725
:1005200070472DE9FF4F0C461E464FF0FF378BB04A
:10053000D2E90001DDF860800A908A46C1F30A55CD
:1005400005B93D46002108464FF00000BAF1000F02
:1005500000F4400005DA00EB80004FF4400101EAAE
:1005600050004FEA9059B9F1010F00DDB9460A98E1
:1005700050EA4A000ED044F61050A5F2FF3545432C
:100580002F14B8F1000F1ED07542291E1EDDC9F1CF
:1005900000021CE0B8F1010F4FF0000001D0302143
:1005A00003E0F24305E02154401CB042FBDB30463F
:1005B0000022002121540B99C1F80880C1E90020D4
:1005C0000FB0BDE8F08FBD1B6D1CDEE74A4600DAB8
:1005D000694206A800F080FA06AB93E8070003AB77
:1005E00083E8070050460A9900F058FB8DE80700A1
:1005F000A0F500501F3800900398002D09DD42F24D
:100600001F014A46084403A90390684600F0B7FD5D
:1006100008E0A0F500504A461F3803A90390684639
:1006200000F0C1FD8DE807000004000C03D04FF07E
:10063000FF30410800E01046B8F1000F03D000225F
:10064000009215461EE0751E05D400F0BFF9303249
:1006500062556D1EF9D5B3460122084302D000222F
:100660007F1C04E02078302801D100227F1E002A60
:10067000099786D01DE0112D07DA00F0A7F9303276
:1006800062556D1C50EA0102F5D1084302D0009872
:10069000C8B10EE00021681E05E0235C625C635473
:1006A0002254401E491C8142F7DBAB46A81B401E6A
:1006B0000990002004F80B000B98099AC0F80880F4
:1006C000C0E9002B7CE711264FF0000859E72DE91F
:1006D000F04F88460446D21D22F0070191B0D1E9BF
:1006E0000001CDE90A0102F04BF902460B98C00F58
:1006F00001D02D2007E02068810701D52B2002E0E2
:10070000202101EAC000032A099001D0072A05DB55
:1007100003464146204600F09FF90BE12078800611
:1007200001D5E06900E00620B8F1650F814606D0EA
:10073000B8F1660F18D0B8F1670F70D131E0002022
:10074000B9F1110F009001DB112301E009F1010360
:100750000AAA01A90CA8FFF7E4FEDDE90C70002647
:1007600009F10105834647E001204B4600904FF018
:1007700000470AAA01A90CA8FFF7D3FEDDE90DB0D6
:100780000C995D46002610B909F101000D18B9EB6E
:10079000050003D4C0F1FF3609F10105A5EB0900FE
:1007A0002BE0B9F1010F01DA4FF001090020B9F196
:1007B000110F0090484601DD112300E003460AAA0C
:1007C00001A90CA8FFF7ADFEDDE90C704D4600262F
:1007D0008346207800070AD4AB4500DA5D4601A8BD
:1007E000012D04DD411911F8011C302907D04F45B6
:1007F00002DA17F1040F04DA012082460FE06D1EC1
:10080000EEE7002F02DCED1B3E4403E0781CA8421B
:1008100000DD7D1CB81B00F1010A4FF00047207875
:10082000000703D4AA4501DB4FF0FF3A0021B7F1DE
:10083000004F0DF143088DF8431024D002202B23E4
:10084000002F01DA7F422D230A21021EA0F10100B0
:1008500000DC5FB197FBF1FC97FBF1F201FB1C7C24
:1008600017460CF1300C08F801CDEEE7A8F10100B5
:1008700003702188090501D5452100E06521A0F11B
:10088000010800F8011C09980FA9A1EB0807FF1D3A
:1008900000B10120411901EBEA70A1693844081A3E
:1008A000401EA0612078C00602D42046AFF300802D
:1008B000099828B1D4E901219047206A401C2062A0
:1008C0002078C00622D52046AFF300801EE0002E1F
:1008D00004DBB34502DD01A8805D00E03020D4E9EF
:1008E00001219047206A401C2062761CAAF1010079
:1008F0005FEA000A0AD100F061F8C0680168405C54
:10090000D4E901219047206A401C2062281EA5F1ED
:100910000105DCDC07E0D4E9012118F8010B904760
:10092000206A401C2062381EA7F10107F3DC204634
:10093000AFF30080032011B043E6000001694A1CB8
:1009400002610878704700B58FB0CDE90131002110
:10095000059105497944CDE9031011466846FFF732
:10096000DBFC0FB000BD0000E5FFFFFF10B54369E1
:1009700013B1AFF3008001E0FFF768FC012010BD68
:10098000127800F124010A7000224A700122EDE77A
:1009900011684FF0FF32E9E7074B70B50D467B4415
:1009A000FFF7D1FF0446284600F004F910B14FF0DC
:1009B000FF3070BD204670BD972A00000048704788
:1009C000C801002000487047A801002030B5B0F1F0
:1009D0000A024FEA900E71F100034EEA817EB0EBFD
:1009E0000E0061EB91014FEA101E4EEA017E10EB02
:1009F0000E0041EB11114FEA102E4EEA016E10EB82
:100A00000E0041EB11214FEA104E4EEA014E10EB61
:100A10000E0041EB1141401841F100014FEAD000B6
:100A200040EA41704FEAD10110EB80054FEA8104A2
:100A300044EA907444EB01046D1944EB0404521B26
:100A4000A3414FF0000348BF0A3200D530BD401C1F
:100A500041F1000130BD00002DE9F0411F46044680
:100A600003260168072A01F4006004DB08B116A51B
:100A700005E016A503E008B115A500E015A521F0D5
:100A800010002060A069C01EA0610FB1401EA061CF
:100A90002046AFF300804FB1D4E90121384690479A
:100AA000206A401C2062C01C206206E0206AFAE72F
:100AB000D4E9012115F8010B9047761EF8D22046A3
:100AC000AFF30080BDE8F0814E414E006E616E00D4
:100AD000494E4600696E66002DE9F047814616468C
:100AE0008AB0334878440DC88DE80D00304878440A
:100AF000801C03AC0DC884E80D0041F69B3008440F
:100B0000372190FBF1F290FBF1F5A5F1800501FB97
:100B100012041B3C02D56442012000E00020DFF8F3
:100B200090A080460027FA44AAF1BE0A0DE0E00733
:100B300009D03246684607EB47010AEB810100F015
:100B400032FB8DE8070064107F1C002CEFD1184F9A
:100B50007F44AC3F18E0E80714D007EB04100DF118
:100B6000180A90E80E008AE80E00C068F04201D131
:100B700098190890324606A903A800F014FB03ABAD
:100B800083E807006D10641C002DE4D132466946ED
:100B9000B8F1000F03A802D000F0F1FA01E000F074
:100BA00002FBC9E90001C9F808200AB0BDE8F087D6
:100BB0005C3F0000007B00F08000704700487047F9
:100BC000A80100207546FFF7F9FFAE46050069460B
:100BD000534620F00700854618B020B5FFF716FBF6
:100BE000BDE820404FF000064FF000074FF000082E
:100BF0004FF0000B21F00701AC46ACE8C009ACE8AF
:100C0000C009ACE8C009ACE8C0098D46704704468D
:100C1000AFF300802046FFF7E5FA00004FF0013CFB
:100C200050F8042B51F8043B9A4221D1A2EB0C035B
:100C3000934313EACC1317D150F8042B51F8043B1B
:100C40009A4215D1A2EB0C03934313EACC130BD1B8
:100C500050F8042B51F8043B9A4209D1A2EB0C0343
:100C6000934313EACC13DBD04FF00000704700BF72
:100C7000D01A01BAB1FA81F101F0180122FA01F09B
:100C8000CB40C1F12001DBB2C0B2C01A2CFA01F393
:100C9000D11A914311EAC311E6D170475FEA400CC3
:100CA00008BF91F0000F4FEA8C234FEAC12243EABC
:100CB00051514FEA1C5018BF00F5F0404FEA300088
:100CC00018BF41F000415FEA6C5C00F02980BCF184
:100CD000FF3F08BF40F080407047130C06BF12046E
:100CE0004FF0100C4FF0000C130E04BF12020CF169
:100CF000080C130F04BF12010CF1040C930F04BF76
:100D000092000CF1020CD30F04BF52000CF1010C45
:100D100011464FF00002A0F11F00A0EB0C0070473D
:100D200011F0004F08BF704731F000413FF4D5AFDC
:100D30000B0C06BF09044FF0100C4FF0000C0B0E0B
:100D400004BF09020CF1080C0B0F04BF09010CF1E0
:100D5000040C8B0F04BF89000CF1020CCB0F04BFF5
:100D600049000CF1010CCCF12003A0EB0C0022FA9D
:100D700003F302FA0CF241EA030100F101007047AB
:100D800020F07F4C80EA030023F07F47ACEB0703A1
:100D900003F57C5300F0004003F1FF032DE9804987
:100DA0004FEA154B09B44FEA144325EA0B4E24EAE7
:100DB00003480FF2042606EB132749083E785FEA42
:100DC000320203FB0667C7F5000707FB06F64FEA8A
:100DD00054374FEAD64606F1020607FB066CCCF103
:100DE000005C4FEA1C472CEA074C07FB06F40CFB9F
:100DF00006F504EB15464FEA961634BF00204FF077
:100E000000404FEAD13706FB07FC4FEA1C4C0CFBB5
:100E10000BF7D21B03FB0CF761EB07010CFB0EF782
:100E2000B0EB074072EB17420CFB08F734BFA2EBA4
:100E30000742B2EB074261EB17414FEA0C444FEA1D
:100E4000910706FB07FC4FEA1C4C0CFB0BF7B0EBC1
:100E5000C74072EB573203FB0CF734BFA2EBC7421B
:100E6000B2EBC74261EB57310CFB0EF7B0EBC7009A
:100E700072EB57720CFB08F734BFA2EBC702B2EB60
:100E8000C70261EB5771039F4FEA816141EA9211FA
:100E900004EBCC044FEAD1374FEA826206FB07FC31
:100EA00042EA90124FEA80604FEA1C4C0CFB0BF7B1
:100EB000D21B03FB0CF761EB07010CFB0EF7B0EB49
:100EC000074072EB17420CFB08F734BFA2EB074256
:100ED000B2EB074261EB17414FEA8C554FEA91079D
:100EE00004EB9C2406FB07FC4FEA1C4C0CFB0BF7A5
:100EF000B0EBC74072EB573203FB0CF734BFA2EBE9
:100F0000C742B2EBC74261EB57310CFB0EF7B0EBB7
:100F1000C70072EB57720CFB08F734BFA2EBC70295
:100F2000B2EBC70261EB577115EB4C254FEA8161BB
:100F300041EA92114FEA82624FEAD13742EA9012B7
:100F400006FB07FC44F100044FEA80604FEA1C4CAA
:100F50000CFB0BF7D21B03FB0CF761EB07010CFB3F
:100F60000EF7B0EB074072EB17420CFB08F734BFEB
:100F7000A2EB0742B2EB074261EB174115EB1C15E0
:100F80004FEA813141EA92414FEA823242EA90428D
:100F90004FEA80304FEA0C7644F1000448EA0343FC
:100FA0004EEA0B484FF0000EB2EB080C71EB030752
:100FB00024BF624639464EEB0E0E4FF0000B001870
:100FC000524149414BEB0B0BB2EB080C71EB0307A1
:100FD0007BF1000B24BF624639464EEB0E0E4FF0FC
:100FE000000B0018524149414BEB0B0BB2EB080CC4
:100FF00071EB03077BF1000B24BF624639464EEBD1
:101000000E0E51EA020718BF46F0010616EB0E76E7
:1010100055F1000254F1000103D5BDE88901BDE896
:101020000088BDE88901BDE80048B619524141EB8E
:101030000101A3F10103704780807F7E7D7C7B7A74
:101040007978777676757473727171706F6E6E6D74
:101050006C6C6B6A6A69686867666665646463631A
:1010600062616160605F5F5E5E5D5D5C5C5B5B5AA0
:101070005A5959585857575656555555545453530D
:1010800052525251515050504F4F4F4E4E4D4D4D68
:101090004C4C4C4B4B4B4A4A4A49494948484847B3
:1010A00047474746464645454544444444434343F1
:1010B0004342424242414141002B26D4770021D095
:1010C0001CB54FEA370703B44FF010004FF0100182
:1010D0004FF000000FBCBDE810400BF1010BBBF15D
:1010E000010F08BF5FEA170722BF12F1010211F1D9
:1010F00001014FF0004143F1000300F0004043EADA
:1011000000007047F9D35708DAE746EA064613F1BC
:10111000400F4FEA16461FDD13F1200FDFBF1643C5
:101120000A46002120335B42C8D0C3F1200746EABB
:10113000064602FA07F74FEA164646EA0706C3F1E3
:10114000200722FA03F201FA07F721FA03F14FF020
:10115000000342EA0702B1E746EA020646EA06460B
:101160004FEA164646EA0106BCBF46EA0646360C7A
:101170004FF000034FF000024FF000019EE72DE911
:10118000C048934630B491E8380007C831EA400CB3
:1011900048BF34EA430C03D5FFF7F2FDFFF78CFF9D
:1011A000F0BCBDE800882DE9C048934630B491E812
:1011B000380007C810F0804F08BF13F0804F03D1EC
:1011C00000F005F8FFF778FFF0BCBDE8008820F0DC
:1011D0007F4780EA030023F07F4C07EB0C03A3F565
:1011E0007C5300F00040A3F1FE0392F0000F00F0EA
:1011F000B38095F0000F00F077802DE901494FEAA8
:1012000011404FEA144621EA004800FB06FC24EA9C
:10121000064708FB06F607FB08F800FB07F718EB84
:1012200006484CEB164C4FEA124B18EB07484FEAB6
:1012300015464CEB174022EA0B4E0BFB06FC25EA49
:1012400006470EFB06F607FB0EFE0BFB07F71EEB31
:10125000064E4CEB164C4FF000061EEB074E4CEBC7
:10126000174B18EB0B0840F1000018EB0E0B58EB76
:10127000000840F100008F1A4FF000013CBFC94345
:10128000661B14BFB5EB040C00213CBFC943F61B21
:101290004FEA17444EEA8E0E27EA04454FEA1C47F0
:1012A00004FB07622CEA074C05FB07F70CFB05F66D
:1012B00004FB0CFC16EB074642EB174216EB0C4600
:1012C00042EB1C421BEB060658EB0202414146EA88
:1012D0009E0601D5BDE80189B619524141EB0101D5
:1012E000A3F10103BDE801894FEA14454FEA114714
:1012F00024EA054621EA074C05FB07F406FB07F73D
:101300000CFB06F105FB0CFC11EB074144EB174409
:101310004FEA124711EB0C4144EB1C4422EA074C04
:1013200005FB07F206FB07F70CFB06F605FB0CFCBA
:1013300016EB074642EB174216EB0C4642EB1C45F8
:101340006A1854F1000148BF7047B619524141EB89
:101350000101A3F10103704795F0000F37D04FEA68
:1013600011424FEA144721EA024624EA074C02FBE5
:1013700007F106FB07F70CFB06F402FB0CFC14EB71
:10138000074441EB17414FEA154714EB0C4441EB7E
:101390001C4125EA074C02FB07F506FB07F70CFB8F
:1013A00006F602FB0CFC16EB074645EB174516EB61
:1013B0000C4645EB1C42121951F1000148BF704721
:1013C000B619524141EB0101A3F1010370474FEA05
:1013D00014454FEA114724EA054621EA074C05FB6C
:1013E00007F106FB07F70CFB06F24FF0000605FBC2
:1013F0000CFC12EB074241EB174112EB0C4251EB94
:101400001C4148BF7047921841EB0101A3F1010351
:10141000704700001FB537208DF80C0001208DF8B3
:101420000D008DF80E008DF80F0003A800F038FBBA
:101430000121202000F06EFC42F20F70ADF8040094
:101440004720ADF800000020094CADF80600ADF8CB
:1014500002006946204600F0AFFF012211462046F7
:1014600000F091FE0121204600F077FE1FBD000034
:10147000001400409722024902A0FEF7DBFEFEE7BF
:10148000A64700085B25735D5B25645D00000000D6
:10149000C122024902A0FEF7CDBE0000D6470008D7
:1014A0005B25735D5B25645D00000000F0B5CC78C2
:1014B000002204F00F03E40601D58C7823430C7856
:1014C0004FF00F0C14F0FF0F4FF0010E1BD005680A
:1014D0000E880EFA02F42640A64210D196000CFAAD
:1014E00006F725EA070703FA06F5CE783D43282ECE
:1014F00002D0482E02D002E0446100E00461521C98
:10150000082AE5D305600A88FF2A1CD9446800220E
:1015100002F108060EFA06F50E882E40AE420ED1F4
:1015200096000CFA06F7BC4303FA06F7CE783C4364
:10153000282E00D14561CE78482E00D10561521C7D
:10154000082AE5D34460F0BD0246002092680A42B2
:1015500000D00120704700007522024902A0FEF76A
:1015600069FEFEE7824700085B25735D5B25645DCD
:101570000000000038B50121042000F0D7FB042052
:10158000ADF80000114D48248DF803406946284607
:10159000FFF78CFF0820ADF800008DF80340694686
:1015A0002846FFF783FFE814ADF800008DF80340EC
:1015B00069462846FFF77AFFA814ADF800008DF8B9
:1015C000034069462846FFF771FF38BD0008014017
:1015D0002DE9F041324F002404213846FFF7B4FFD3
:1015E0000026304D01280ED02878401CC0B228704B
:1015F000022809D904213846FFF7A6FF0028F9D0B0
:101600002E70012400E02E7008213846FFF79CFF61
:1016100001280ED06878401CC0B26870022809D931
:1016200008213846FFF790FF0128F9D16E70022497
:1016300000E06E704FF4006841463846FFF784FFC3
:1016400001280FD0A878401CC0B2A87002280AD97F
:10165000444621463846FFF777FF0128F9D1AE709E
:10166000032400E0AE704FF4805841463846FFF73F
:101670006BFF01280FD0E878401CC0B2E870022848
:101680000AD9444621463846FFF75EFF0128F9D1C2
:10169000EE70042400E0EE702046BDE8F08100000A
:1016A00000080140200000208622024902A0FEF727
:1016B000C1FDFEE7944700085B25735D5B25645D13
:1016C00000000000704700002DE9F34F5B4C81B033
:1016D00020690A30206102F039FB4FF06632584B26
:1016E00002F096F902F0A6F80121A06003F005F8D7
:1016F00002F0A6FD534A544B02F078FB02F09AF830
:10170000E060207802F022FB0022504B01F086FDC1
:101710004F4A504B02F06AFB02F08CF80546E06835
:1017200002F08EFD01F0B8FF80468946606802F045
:1017300087FDDFF814B1DFF820A1ABF12F0B524683
:101740005B4602F053FB0022444B02F061F901F0CA
:1017500025FE06460F46284602F072FD05463B462A
:101760003246009102F042FB42464B4602F03EFBFD
:1017700002F060F88046E06802F062FD01F08CFF44
:1017800006460F46606802F05BFD52465B4602F07B
:101790002DFB0022314B02F03BF901F07DFF0246A8
:1017A0000B462846009902F021FB32463B4602F0E8
:1017B0001DFB02F03FF80446404600F01FFA284D9A
:1017C000284600F015FA274E304600F00BFA0020AC
:1017D00000F002FA204600F089FA284600F080FA6C
:1017E000304600F077FA002000F06EFA019800F021
:1017F000A1F90546029800F015FA0446284601F0C2
:1018000047FF4FF448667742B04204DD002D01DD0A
:10181000354600E03D46204601F03AFFB04204DD87
:10182000002C01DD344600E03C46284600F036FB43
:101830002046BDE8FE4F00F038BB00003400002019
:1018400066CD94406E861BF0F9210940008051401E
:1018500012143FC6DCA54C406F1283C00080664066
:101860000000C842CDCC4C3F2DE9F04180460C46EB
:101870002BA0FEF7DFFC404602F076FD01F008FFEA
:101880002D2848DA204602F06FFD01F001FF2D28D7
:1018900041DA002000F0B2F9254D284600F0A8F901
:1018A0004FF07C56304600F09DF9224F384600F04C
:1018B00093F9002000F01AFA284600F011FA304699
:1018C00000F008FA384600F0FFF9404600F032F91F
:1018D0000546204600F0A6F90446284601F0D8FE49
:1018E00040F6B836B04204DD002D01DD354600E09B
:1018F000114D204601F0CCFEB04204DD002C01DD8C
:10190000344600E00D4C284600F0C8FA2046BDE8F9
:10191000F04100F0CABABDE8F04100F029BB000078
:101920006D6F6465325F5F72756E696E670A000085
:10193000000048430000AF44F0F1FFFF48F4FFFF10
:101940002DE9F047414C80468946E0690A30E06164
:1019500002F0FCF94FF066323D4B02F059F801F00D
:1019600069FF0121606102F0C8FE02F069FC394A9A
:10197000394B02F03BFA01F05DFFA06102F060FC20
:10198000364A374B01F088FF01F086FE05460E46C9
:10199000607802F0DBF92A46334602F027FA01F0BC
:1019A00049FF0746A06902F04BFC01F075FE0546B1
:1019B0000E46607802F0CAF92A46334602F016FA5B
:1019C00001F038FF0446384600F018F9254D284646
:1019D00000F00EF9244E304600F004F9234F38464B
:1019E00000F0FAF8204600F081F9284600F078F976
:1019F000304600F06FF9384600F066F9404600F0D6
:101A000099F80546484600F00DF90446284601F0CD
:101A10003FFE4FF448667742B04204DD002D01DD01
:101A2000354600E03D46204601F032FEB04204DD7E
:101A3000002C01DD344600E03C46284600F02EFA3A
:101A40002046BDE8F04700F030BA00003400002026
:101A500066CD94406E861BF0F92109406F1283C059
:101A6000CA21F93F00001643CDCC4C3F000048434B
:101A700010B500F043FD01F0BDFDBDE8104000F0E1
:101A800077BA00006A22024902A0FEF7D3BB000029
:101A9000764700085B25735D5B25645D00000000F0
:101AA00030B50F23C27801780125F2B1144A1268CB
:101AB00001F1E02102F4E062C2F5E062120AC2F133
:101AC0000404D3404278A24084781C40144322018D
:101AD00081F80024007800F01F018D40400980004B
:101AE00000F1E020C0F8005130BD01F01F0085403A
:101AF0004809800000F1E020C0F8805130BD0000AE
:101B00000CED00E0024908430249086070470000FC
:101B10000000FA050CED00E005480021C1610162FA
:101B20000161416181610160C0E9021170470000FB
:101B3000580100202DE9F047244C216802F0FCFCFC
:101B4000814602F07DFBD4E9022301F0A5FE0022CC
:101B50001F4BC4E9020102F047FA02D200201C49DF
:101B600008E0D4E9020100221A4B02F003F903D283
:101B700018490020C4E902014846E16902F0E6FC88
:101B80000146C4F81C90A06902F00AFC02F058FB60
:101B900005468846606902F053FBD4E9022302F04F
:101BA00025F906460F464946206902F0F9FB02F086
:101BB00047FB32463B4601F06FFE2A46434601F0A2
:101BC0006BFEBDE8F04702F07BB800005801002032
:101BD00000F8A14000F8A1C00149886170470000E9
:101BE0005801002001494861704700005801002059
:101BF0000149086170470000580100200149086050
:101C0000704700005801002005480021C1610162B1
:101C10000161416181610160C0E90211704700000A
:101C2000800100202DE9F047244C216802F084FC5B
:101C3000814602F005FBD4E9022301F02DFE0022CB
:101C40001F4BC4E9020102F0CFF902D200201C4967
:101C500008E0D4E9020100221A4B02F08BF803D20B
:101C600018490020C4E902014846E16902F06EFC0F
:101C70000146C4F81C90A06902F092FB02F0E0FA61
:101C800005468846606902F0DBFAD4E9022302F0D7
:101C9000ADF806460F464946206902F081FB02F086
:101CA000CFFA32463B4601F0F7FD2A46434601F0A3
:101CB000F3FDBDE8F04702F003B80000800100200A
:101CC00000F8A14000F8A1C00149886170470000F8
:101CD0008001002001494861704700008001002018
:101CE0000149086170470000800100200149086037
:101CF0007047000080010020CB22024902A0FEF7BD
:101D000099BA0000E74700085B25735D5B25645DB9
:101D100000000000044A0029D16901D0014300E01D
:101D20008143D1617047000000100240044A00293D
:101D3000916901D0014300E0814391617047000047
:101D40000010024030B5204A5168204B11F00C01C0
:101D500003D0042901D0082901D0036012E05168A2
:101D6000536801F470114FF0020413F4803F04EB48
:101D7000914102D053689B0301D5154B00E0134BF2
:101D80005943016051680F2303EA1111114B5C5C48
:101D90000168E14041605468072505EA14241C5D90
:101DA00021FA04F48460546805EAD4241B5DD94008
:101DB000C1605268032303EA9232064B1B1F9A5CF0
:101DC000B1FBF2F1016130BD0010024000127A0057
:101DD00000093D0004000020B722024902A0FEF7DE
:101DE00029BA0000CA4700085B25735D5B25645D66
:101DF000000000000CB50022264800920192016804
:101E000041F4803101604FF4A063016801F40031B6
:101E100001910099491C0091019911B900999942C9
:101E2000F3D10168890333D5012101911A490A6868
:101E300042F010020A600A6822F003020A600A688F
:101E400042F002020A6041684160416841604168B5
:101E500041F480614160416821F47C114160416836
:101E600041F4E8114160016841F08071016001684E
:101E70008901FCD5416821F003014160416841F0CE
:101E8000020141604168C1F381010229FAD10CBD10
:101E900001920CBD0010024000200240002801DD2C
:101EA00000F020B8404200F007B8002801DD00F043
:101EB00047B8404200F02CB808494FF480520A60FD
:101EC0004B140A1F13605B0013605A000A60044938
:101ED000088003490831088070470000140C014055
:101EE0003804004008494FF480520A604B140A1D20
:101EF00013605B0013605A000A60044908800349BC
:101F00000831088070470000100C01403804004080
:101F1000084A102111602021121F11600649402239
:101F20000A6180224A610549088004490831088015
:101F300070470000140801400010014034040040C4
:101F4000084A102111602021121D1160064940220B
:101F50004A6180220A6105490880044908310880E5
:101F60007047000010080140001001403404004098
:101F70000F4810210160202101600E4900200880D7
:101F80008A140D490A604A140A600A4A121D108018
:101F90000A4A4023536180235361064A0832108065
:101FA00012140A6052000A6002490C31088070471E
:101FB0001408014034040040140C0140001001409A
:101FC000704700000F4810B5016841F00101016041
:101FD00041680D4A1140416001680C4A114001609E
:101FE000016821F480210160416821F4FE01416013
:101FF0004FF41F018160FFF7FDFE05494FF00060BF
:10200000086010BD001002400000FFF8FFFFF6FE60
:1020100008ED00E02DE9FC413A4C0121204600F09A
:10202000A6F801286CD10121204600F093F8364C27
:10203000606802F005F905460E46A06802F000F956
:10204000CDE9005602460B4630A0FEF7F3F83748BC
:10205000374D384E0078384FDFF8E080012807D040
:1020600002281DD0032833D0BDE8FC41FFF72ABB6E
:10207000A06802F0E5F82A46334601F0F7FF01F0C8
:10208000D9FB0546606802F0DBF83A46434601F0AA
:1020900003FC01F0CFFB2946BDE8FC41FFF714BB70
:1020A000A06802F0CDF82A46334601F0DFFF01F0C8
:1020B000C1FB0546606802F0C3F83A46434601F0AA
:1020C000EBFB01F0B7FB2946BDE8FC41FFF7CCBBB9
:1020D000A06802F0B5F82A46334601F0C7FF01F0C8
:1020E000A9FB0546606802F0ABF83A46434601F0AA
:1020F000D3FB01F09FFB2946BDE8FC41FFF720BC64
:10210000BDE8FC810014004034010020726F6C6C4B
:10211000203D2025302E3266207069746368203D92
:102120002025302E32660A0A000000003000002010
:102130000AD7A3703D0AFF3FAE47E17A14AEEF3FE6
:102140000029018802D041F0800101E021F08001E6
:1021500001807047C943018270470029018802D07D
:1021600041F0010101E021F00101018070470246C8
:102170000020138A92890B4202EA010202D0002A4F
:1021800000D001207047002A828901D00A4300E074
:102190008A4382817047000030B5028C22F0010230
:1021A0000284028C8388048B22F0020224F07305DF
:1021B0000C882C430D8915434A882A43114DA842A7
:1021C0000BD0114DA84208D0104DA84205D0104D9B
:1021D000A84202D00F4DA8420DD122F008054A892D
:1021E00023F440732A4322F004058A882A438D8908
:1021F0001D43CB892B4383800483C9888186028455
:1022000030BD0000002C014000340140004001407E
:102210000044014000480140028B22F008020A43BA
:102220000283704770B5028C22F010020284028C87
:102230008388048B0D8824F4E6464FF6FF7404EA85
:10224000052535430E8922F0200204EA06161643BE
:102250004A8804EA02123243104EB04202D0104EB5
:10226000B04215D122F080064A8923F4406304EA83
:102270000212324322F040068A8804EA02123243F4
:102280008E8904EA86061E43CB8904EA830333431E
:1022900083800583C9880187028470BD002C0140BA
:1022A00000340140028B4FF6FF7322F4006203EA10
:1022B000012111430183704770B5028C22F48072B2
:1022C0000284028C8388848B0D8824F07304254358
:1022D0000E894FF6FF7422F4007204EA06261643B4
:1022E0004A8804EA02223243104EB04202D0104E15
:1022F000B04215D122F400664A8923F4405304EA1F
:102300000222324322F480668A8804EA022232439F
:102310008E8904EA06161E43CB8904EA031333436D
:1023200083808583C9888187028470BD002C014029
:1023300000340140828B22F008020A4382837047F6
:1023400070B5028C22F480520284058C8288838BC3
:102350000C8823F4E6464FF6FF7303EA0424344363
:1023600025F400560D8903EA053535434E8803EA06
:1023700006362E43094DA84202D0094DA84205D188
:1023800022F480458A8903EA82122A438280848368
:10239000C988A0F84010068470BD0000002C0140E0
:1023A00000340140828B4FF6FF7322F4006203EA8F
:1023B000012111438183704730B502881B4C1C4DAD
:1023C000A0420DD0A8420BD0B0F1804F08D0194BDD
:1023D000984205D0184B984202D0184B984203D12E
:1023E00022F070034A881A43154B984206D0154BC9
:1023F000984203D022F44073CA881A4302808A8824
:1024000082850A880285A0420AD0A84208D00E4AD6
:10241000904205D00D4A904202D00D4A904201D11F
:10242000097A01860121818230BD0000002C014023
:10243000003401400004004000080040000C00404F
:1024400000100040001400400040014000440140E2
:102450000048014070B588B040F60F60ADF8140038
:1024600001250024244EADF81050ADF81640ADF80B
:10247000124004A93046FFF79FFF6020ADF800002E
:10248000ADF80250ADF80640ADF808406946304658
:10249000FFF782FE08213046FFF7BEFEADF802507E
:1024A000ADF8064069463046FFF7BCFE08213046CD
:1024B000FFF7F8FEADF80250ADF806406946304629
:1024C000FFF7FAFE08213046FFF734FFADF802505F
:1024D000ADF8064069463046FFF732FF0821304626
:1024E000FFF760FF01213046FFF72AFE0121304649
:1024F000FFF733FE08B070BD0004004038B501217D
:102500000220FFF707FC01210C20FFF70FFC402001
:10251000ADF8000018208DF803000320104C8DF852
:10252000020069462046FEF7C1FF8021ADF8001089
:1025300069462046FEF7BAFF01200A4CADF80000BC
:1025400069462046FEF7B2FF0221ADF80010694649
:102550002046FEF7ABFFBDE83840FFF77BBF000029
:1025600000080140000C014070B5154C40F22551A7
:10257000204600F044F900280ED0204600F0CCF9A7
:10258000104AC1B21088030406D444044FF000037B
:1025900006D50A2901D0138070BD40F400400DE03B
:1025A0000D2909D0C0F30D04074D401C80B22955F8
:1025B0001080C728EFD870BD40F48040108070BDF7
:1025C0000038014018000020540000202DE9FC4193
:1025D0001F4C2021204600F00BF9002814D0204683
:1025E00000F09AF91C4B1B495A78885412B90878A4
:1025F000552809D1521CD0B25870022804D34A7809
:102600000024532A02D05C70BDE8FC8198460B2858
:10261000FAD112480A68124F02604A6842600A8979
:102620000281897A8172B86801F00AFE05460E4679
:10263000786801F005FECDE9005602460B4609A078
:10264000FDF7F8FD88F80140BDE8FC4100F000BF4F
:10265000004400404B0100203000002040010020D9
:1026600034010020416E676C652E706974636820C8
:102670003D2025302E32662C416E676C652E726FC0
:102680006C6C203D2025302E32660A0010B586B0D5
:1026900001210820FFF74AFB01218804FFF73AFBDC
:1026A0004FF48060ADF8100018208DF8130003205F
:1026B0001F4C8DF8120004A92046FEF7F7FEE11426
:1026C000ADF8101004218DF8131004A92046FEF770
:1026D000EDFE4FF4165000900020ADF80400ADF868
:1026E0000600ADF80800ADF80C000C20114CADF858
:1026F0000A006946204600F0B9F827208DF814003A
:1027000001218DF8151002228DF816208DF8171072
:1027100005A8FFF7C5F9012240F22551204600F037
:102720008DF80121204600F007F806B010BD00002A
:10273000000C0140004800400029818902D041F48A
:10274000005101E021F400518181704730B587B01C
:1027500001210420FFF7EAFA01214804FFF7DAFA21
:102760000424ADF8104018208DF8130003201E4DEE
:102770008DF8120004A92846FEF798FE0821ADF84E
:1027800010108DF8134004A92846FEF78FFE002490
:102790004FF4E1300090ADF808400C20134DADF837
:1027A0000440ADF80A00ADF80640ADF80C406946AB
:1027B000284600F05BF826208DF814008DF81540AF
:1027C00001218DF816108DF8171005A8FFF768F98C
:1027D000012240F22551284600F030F80121284618
:1027E000FFF7AAFF07B030BD0008014000440040D9
:1027F0000246002012880A4200D00120704770B5BE
:1028000001F01F0501260024C1F3421306FA05F268
:10281000012B0FD0022B0FD0838A4FEA11210088A1
:10282000134206FA01F600EA060001D000B10124C5
:10283000204670BD8389F0E7038AEEE710B5C1F347
:10284000421301F01F040121A140012B07D0022BEC
:1028500007D01430002A026805D00A4304E00C3087
:10286000F8E71030F6E78A43026010BD30B5044641
:10287000008A85B00D464CF6FF710840E988014397
:102880002182A0894EF6F3110840A9882A891143B4
:102890006A8902431143A181A08A4FF6FF41084093
:1028A000A9890143A1826846FFF74CFA194884427E
:1028B00001D1039800E00298A189090400EBC0014E
:1028C00001EB0010296801D5490000E08900B0FB48
:1028D000F1F06422B0FBF2F109010B096FF0180569
:1028E0006B4300EB8300A3891D044FF0320306D530
:1028F00003EBC000B0FBF2F000F0070005E003EBD3
:102900000010B0FBF2F000F00F000843208105B08A
:1029100030BD0000003801408088C0F308007047D7
:10292000C1F3080181807047A822024902A0FDF787
:1029300081FCFEE7B74700085B25735D5B25645D9E
:102940000000000010B50446FFF7EAFF8021204692
:10295000FFF74EFF0028F9D010BD70B50D460646B2
:1029600000243046295DFFF7EDFF641C285D002838
:10297000F7D140213046FFF73BFF0028F9D070BD6A
:10298000490050EAC12018BF04204A0D18BF40F08A
:10299000010040F2FF72B2EB515F08BF40F002004D
:1029A000012808BF052070472DE9F74F144694B061
:1029B0000021C4E902111599079121F00045C94988
:1029C0008D4206DC1599C4E9000117B00020BDE86E
:1029D000F08FC549DFF814A3A9423CDD0799C44E26
:1029E0000029C44FC44A1599534619DD01F03EFB36
:1029F000554506D0C14AC24B01F038FBC4E900017D
:102A00000AE04FF0D352BE4B01F030FB32463B465A
:102A100001F02CFBC4E9000117B00120BDE8F08FE4
:102A200000F03AFF554506D0B44AB54B00F034FFEC
:102A3000C4E900010AE04FF0D352B14B00F02CFF83
:102A400032463B4600F028FFC4E9000117B04FF0C2
:102A5000FF30BDE8F08FAB49A942159978DB21F032
:102A6000004183468846A84AA84B01F0BFF90022DE
:102A7000A74B00F011FF01F023F9099001F04FF985
:102A800006460F469C4A534601F0B0F943465A4663
:102A900001F0E0FA80468A46984A994B304639461A
:102AA00001F0A4F92A0D01250B924246534601F08C
:102AB000D1FA032DC4E9000139D00B98C1F30A51B2
:102AC000401A05EB45111139814230DA9148C3466D
:102AD000784400EB0510CDF80CA00C90D0E9002351
:102AE0003046394601F082F902460B4604910690C1
:102AF0005846039901F0BAFA80468A4602460B46C8
:102B00005846039901F0B2FA049B069A01F0AEFA16
:102B100083460C9803913946D0E90223304601F0F0
:102B200065F95A46039B01F0A1FA6D1CBDE70798B1
:102B30000028A2BF099817B0BDE8F08F616881F046
:102B400000416160099817B04042BDE8F08FFFE78F
:102B500084461598C1F31301C0F30A50A0F2F53072
:102B60004FEA601800F01F06C6F120001390002005
:102B70000690079041F4801E05206D4676B1664AA6
:102B800008EB00017A4452F8213002EB8101B34096
:102B90004A68139922FA01F1194305E05F4908EBED
:102BA0000002794451F82210A1FB0E27A1FB0C135F
:102BB0001A449A4234BF0123002303EB070A05EBB2
:102BC0008003D3E901B70F448F4234BF01210021B4
:102BD00093448B4411B1934502D903E0934501D24C
:102BE000012100E00021C3E901B7514445F820105C
:102BF000011EA0F10100C1DC0298059F00F1005008
:102C0000800F12900298DDE90356800001F087F8EA
:102C1000834628460D9101F099F86FF01D0201F0EE
:102C20003EFDCDE90E01304601F090F86FF03D0217
:102C300001F035FD80468A46384601F087F86FF08E
:102C40005D0201F02CFD074642465346119100F00B
:102C500023FEDDE90E2300F01FFE5A460D9B00F017
:102C60001BFE00250E465A4628460D9B01F0FEF934
:102C7000DDE90E2301F0FAF94246534601F0F6F978
:102C80003A46119B01F0E6F9DFF898A0244A534632
:102C900001F0ACF807468846234A244B31462846C3
:102CA00001F0A4F83A46434600F0F6FD0746884690
:102CB0004FF0A84253463146284601F097F83A466D
:102CC000434600F0E9FD159A12F0004F04D0129A25
:102CD00081F0004152421292C4E90001129817B0EB
:102CE000BDE8F08FFB21E93F7CD90240FB21F93F91
:102CF0007370032E8A19A33B000040543163621A9B
:102D000061B4D03DFB21394183C8C96D305FE43FD8
:102D10000000E03F041E0000801D0000621D000056
:102D2000182D4454FB21F93D3326A611460B113CC6
:102D30002DE9FF4D21F0004807460C46B8F1795FB8
:102D400008DA00F0BDFF002801BF0020324904B0BE
:102D5000BDE8F08D3A4623461046194601F046F884
:102D6000054602462D480E460B460621784400F0E3
:102D70005DF82A46334601F039F8DDE90223824640
:102D80008B463846214601F031F804460F4652463C
:102D90005B462846314601F029F822463B4601F0C1
:102DA00065F907468A464FF0FF322846314601F062
:102DB00076FC1B4A90450ADA3A46534601F056F92A
:102DC00004B00022BDE8F04D134B01F043B9154AA1
:102DD0004245A8BFA8F500154FF00004B8BF124D3A
:102DE00022462B4601F042F90646884622462B46EB
:102DF0000020094901F03AF904460D463A46534687
:102E00003046414601F032F904B022462B46BDE877
:102E1000F04D01F01FB900000000F03F301B000032
:102E20003333D33F0000E93F0000D23F2DE9F041AA
:102E30004F1E00EBC7010446D1E9000115461E46AE
:102E400037F006020DD02A46334600F0CFFF7F1E32
:102E500004EBC703D3E9002300F01EFD37F00602A0
:102E6000F1D1022F25D0042F13D0062F18BFBDE8B3
:102E7000F0812A46334600F0B9FFD4E90A2300F076
:102E80000BFD2A46334600F0B1FFD4E9082300F0D9
:102E900003FD2A46334600F0A9FFD4E9062300F0DB
:102EA000FBFC2A46334600F0A1FFD4E9042300F0DE
:102EB000F3FC2A46334600F099FFD4E9022300F0E0
:102EC000EBFC2A46334600F091FFD4E90023BDE82D
:102ED000F04100F0E1BC00002DE9FF4D054621F076
:102EE000004084B00C46B0F1795F0BDA2846FFF75A
:102EF00047FD042808BF00F071F8284608B02146B5
:102F0000BDE8F08D2A460B46104600F06FFF0646DE
:102F10000F462A46234600F069FF804626488A4627
:102F200032463B4605217844FFF780FF83461098E0
:102F3000029160B3214A224B4046514600F056FFB1
:102F4000CDE900015A4640465146029B00F04EFF33
:102F500082468846DDE906014FF0FF3201F09FFB13
:102F60005246434601F082F832463B4600F03EFFAF
:102F7000DDE9062301F07AF8DDE9002301F076F8B7
:102F800008B02A462346BDE8F04D01F063B80B4671
:102F90005A463046394600F029FF084A084B00F0EF
:102FA0007BFC4246534600F021FF08B02A462346E8
:102FB000BDE8F04D00F070BC761A0000495555553B
:102FC0005555C5BF012201F06ABB00F065BC002267
:102FD00013461046114600F01BBD0000024A0020B7
:102FE000110701F05CBB000001FDFFFF30380A282B
:102FF00001D2012070470020704770472DE9F84F3B
:1030000004460D4621F0004000917349814211DCD5
:103010007249884201DC06D12CB120462946BDE820
:10302000F84FFFF7CFBF6E48002DCCBF6D496E49FA
:10303000BDE8F88F6D49814211DD6D498142D8BFED
:103040004FF0FF366DDD20462946FFF799FC042836
:1030500008BFFFF7C3FF20462946BDE8F88F654942
:10306000654F25F00045814233DD6449814219DD19
:10307000002632464FF080432046294600F00CFCE3
:1030800080468A4601222046294601F008FB00229C
:103090003B4600F0EBFF4246534600F0B9FC0446C5
:1030A0000D463EE001260022BA463B462046294610
:1030B00000F0F2FB80460F46002253462046294688
:1030C00000F0D4FF42463B4600F0A2FC04460D4609
:1030D00027E04B4981421BDDDFF828A102260022B0
:1030E00053462046294600F081FE00223B4600F070
:1030F000D3FB80460F46002253462046294600F067
:10310000B5FF42463B4600F083FC04460D4608E00E
:10311000032622462B4600203B4900F079FC04465A
:103120000D4622462B461046194600F05FFE8B46A0
:10313000824602460B4600F059FE074602463348D7
:1031400088460B4606217844FFF770FE52465B46E0
:1031500000F04CFE82462E488B463A4643460521F7
:103160007844FFF763FE3A46434600F03FFE0246CE
:103170000B46002E504659460CDA00F08DFB2246D5
:103180002B4600F033FE01B022462B46BDE8F04F3F
:1031900000F060BF00F080FB22462B4600F026FEC8
:1031A0001C4A7A4402EBC603D3E9002300F05EFF19
:1031B00022462B4600F05AFF174A7A4402EBC60318
:1031C000D3E9002300F046FF009A002AB8BF81F03F
:1031D0000041BDE8F88F0000000010440000F07FBF
:1031E000182D4454FB21F93FFB21F9BF0000DC3FBF
:1031F0000000203E0000F33F0000F03F0000E63FEB
:10320000008003400000F83F0000F0BF26170000D8
:10321000E4160000821600004A1600002DE9F04D69
:103220009446CCF1000423F000464CEA0404524FCB
:1032300046EAD4749A46884621F00042BC4206D839
:10324000454240EA050442EAD474BC4204D9BDE8D0
:10325000F04D6246FFF7B9BEAAF14055A5F17F6572
:1032600055EA0C040BD0022404EAAA74434DDFF89B
:1032700010E144EAD87452EA000B04D00CE0BDE837
:10328000F04DFFF7BBBE002C14BF012CBDE8F08D44
:10329000022C30D0032C32D056EA0C0B0AD0BE429E
:1032A00020D1BA4209D126F0804622F0804233462E
:1032B000114617E000291ADB25E0DFF8C8B0FB440F
:1032C000002C04BFDBE90001BDE8F08D012C02BF3A
:1032D000DBE9000181F00041BDE8F08D022C0AD04D
:1032E000032C0CD0BA4212D1B8F1000F0BDA2348EC
:1032F0002549BDE8F08D28462449BDE8F08D2846D3
:103300007146BDE8F08D1D482149BDE8F08D921B46
:1033100012153C2AC4BF19481D490EDCBAF1000F32
:10332000BEBF12F13C0F0020014606DB624600F0F2
:103330006FFB21F00041FFF761FE002C08BFBDE8E4
:10334000F08D012C04BF81F00041BDE8F08D114AE1
:10335000114B022C07D000F089FE2A46BDE8F04D43
:103360000A4B00F083BE00F081FE2A46BDE8F04D16
:10337000064B00F06FBE00000000F07F182D445493
:10338000FB2109C00E160000FB21F9BFFB210940FB
:10339000FB21F93F075C143326A6A13C00B5244B62
:1033A00021F0004287B09A42DCBF0022134629DD9B
:1033B000204B9A4208D140B94FF00100FDF751F877
:1033C000FFF705FE07B000BD03DBFFF7FBFD07B00D
:1033D00000BD02AAFFF7E8FA10F0030104BF0DF1E7
:1033E000080C9CE80F000DD0012001290ED0022905
:1033F00014D00DF1080C00909CE80F00FFF76CFD55
:1034000007B000BDFFF794FC07B000BD0DF1080C3C
:1034100000909CE80F00FFF75FFD05E00DF1080C40
:103420009CE80F00FFF784FC07B081F0004100BD6D
:10343000FB21E93F0000F07F04490A885206FCD5D1
:10344000024AC1B2121D11807047000000380140CD
:103450002DE9F041214C608800B200F060FC6FF073
:103460000E06324601F01BF91D4F00223B4600F0CC
:10347000BDFC00F0DFF9A4F10C05A860A08800B243
:1034800000F04DFC324601F00AF900223B4600F004
:10349000ADFC00F0CFF96860E08800B200F03FFCBE
:1034A000324601F0FCF800223B4600F09FFC00F0A1
:1034B000C1F92860208900B200F031FC0022094BDC
:1034C00000F0A6FA0022084B00F0E6F900F0B2F98D
:1034D0000649486001200870BDE8F08140010020E5
:1034E00000806640004075400020424024000020DB
:1034F0004FF4A060FEF706FB00F01EF900F02CF977
:10350000FDF788FFFEF7B4FAFEF706FBFEF77CFB3B
:10351000FFF71CF9FFF7BAF8FEF72CF8DFF8AC80DC
:103520003C25DFF8AC9000262A4CFEF751F8052820
:1035300015D2DFE800F0030E16284100294F26704F
:1035400025A13846FFF709FA27493846FFF705FA5B
:10355000EBE72078401CC0B220700428E5D3267029
:10356000E3E72078022806D00428DED199F800008D
:103570004946401D10E098F8000041460A3014E02A
:1035800089F80050D1E7207802280AD00428CCD14D
:1035900099F800004946401FC0B208703C28C4D9C1
:1035A000EEE798F8000041460A38C0B208703C289F
:1035B000BBD988F80050B8E720780228B5D10C4F65
:1035C0000A49386800F068FE3860AEE73400002031
:1035D000350000203000002070616765206D616952
:1035E0006E000000004800402C0000200000204138
:1035F0003800002038B501211C20FEF797FB102071
:10360000ADF800008DF8030003201E4C8DF8020079
:1036100069462046FDF74AFF2021ADF800106946B3
:103620002046FDF743FFA014174CADF80000694693
:103630002046FDF73BFF6114ADF8001069462046B7
:10364000FDF734FF4021114DADF8001069462846C2
:10365000FDF72CFF8021ADF8001069462846FDF7E4
:1036600025FF4FF48040ADF8000069462046FDF785
:103670001DFF4FF40040ADF8000069462046FDF7FD
:1036800015FF38BD00080140000C0140001001404A
:10369000002800DA4042704700B5254B21F0004277
:1036A00087B09A4203DC0022134600922BE0214BA4
:1036B0009A4208D140B94FF00100FCF7D2FEFFF763
:1036C00086FC07B000BD03DBFFF77CFC07B000BD44
:1036D00002AAFFF769F910F003014FF001000DD0C5
:1036E000012914D002291AD00DF1080C9CE80F0012
:1036F000FFF71EFB07B081F0004100BD0DF1080C83
:1037000000909CE80F00FFF7E7FB07B000BD0DF14C
:10371000080C9CE80F00FFF70BFB07B000BD0DF194
:10372000080C00909CE80F00FFF7D6FBE2E70000D2
:10373000FB21E93F0000F07F4FF0E020016921F01C
:103740000401016103480921017042F228314180DE
:10375000704700001400002030B587B0012104201C
:10376000FEF7E4FA01210420FEF7E0FA01218803C4
:10377000FEF7DCFA4FF40070ADF8100018208DF859
:1037800013001F4D03248DF8124004A92846FDF7AD
:103790008DFE2915ADF8101004218DF8131004A921
:1037A0002846FDF783FE4FF4E13000900020ADF88D
:1037B0000400ADF80600ADF80800ADF80C000C20D0
:1037C000104DADF80A0069462846FFF74FF825204E
:1037D0008DF814008DF815408DF8164001208DF8F5
:1037E000170005A8FEF75CF9012240F22551284692
:1037F000FFF724F801212846FEF79EFF07B030BDF1
:10380000000801400038014010B500290AD00878AE
:10381000002807D005487844FDF700FA002801D0B9
:10382000002010BD0248784410BD00006612000060
:103830005E12000021F00042A2F16052B2F5801F3A
:1038400001F0004328BFD2F17F6C0BD95FEA001C66
:1038500043EAC20242EB507018BF704728BF20F005
:1038600001007047B2F5801FBCBF184670474FEA91
:10387000410C1CF5001F02D2084600F058BE70B57E
:1038800000F05EFB00000089FFF7F6BF4FF000403C
:10389000A0F580007047000010B591EA030F48BF03
:1038A00083F0004300F1EA83841A71EB030C05D224
:1038B000121943EB0C03001B61EB0C01DFF824E150
:1038C0004FEA1154A4EB135C1EEA430F18BF9EEAA3
:1038D000445F73D023EA0E03DCF1200E21EA045189
:1038E00043F4801332D322FA0CFE10EB0E0023FABD
:1038F0000CFE41EB0E01CCF1200E03FA0EFE10EB94
:103900000E0051F10001B1F5801FCCF1200E32D232
:1039100001EB045112FA0EF2BDE8104058BF704797
:10392000401C38BF5FEA420218BF7047002814BF2E
:1039300020F0010041F100014FEA410313F5001F9F
:1039400038BF7047A1F1C04100F048BB012A43EBEA
:103950000302ACF1200CDCF11F0E32BF4FF0000E61
:1039600023FA0CF310EB030041EB0451B4EB115FAD
:10397000D0D0A1EB045101F5801149085FEA300075
:1039800001EB04510ED350F1000038BF12FA0EFEC5
:1039900008D1BDE81040C9E7401C38BF5FEA4202C9
:1039A000CAD1C3E7BDE810404FEA410313F5001F39
:1039B00038BF7047A1F1C04100F010BB9EEA445FE0
:1039C00008D011EA5E0FBDE8104004BF01F00041CD
:1039D00000207047BDE8104070B500F0B1FA00BF9C
:1039E00064FBBE3E0000E0FF02494FF0000000F023
:1039F00024BE00BF0000F87F491058BFC1F140410C
:103A00005B1058BFC3F140438B42EFF30080704717
:103A10002DE9C04130B4DFF8A0C23CEA111418BF50
:103A20003CEA131400F0EC8081EA03051CEA11144F
:103A300044EAD57418BF1CEA131500F0C780A4EB44
:103A400005044FF0004545EAC12145EAC32341EA98
:103A5000505143EA525304F17F74994204F5003403
:103A60004FEAC0204FEAC22208BF904200F09C807B
:103A70004FEA13650FF24016765D4FEA134506FBD9
:103A800005F7C7F1807706FB07F74FEAD737A7FBA3
:103A900003687642C8F58038A7FB06CE38BFA8F188
:103AA000010807FB08E64FF0000EA6FB028CE6FBC0
:103AB00003CEDCF1000CCEF1004E38BFAEF1010EAA
:103AC000A6FB0C584FF000074FF00005E6FB0E87F1
:103AD000A1FB08C6A0FB07CE16EB0E0645F10005BC
:103AE000E1FB076515F1E04E7EBFA4F580345FEA87
:103AF00046066D4116F1800745F100054FEA17278C
:103B00004FEA066647EA0567A6F1DE46B6F1805F32
:103B10004FEA15251FD9384624F0010C05EBC47176
:103B2000BCF1FE6F01EB0C1102D8F0BCBDE80081C6
:103B300024425CBF01F5801E9EEAC47F02D4F0BC23
:103B4000BDE80081244238D4F0BCA1F1C041BDE8F9
:103B5000004100F043BA4FEAD22242EA43524FEA10
:103B6000D323A7FB02864FEAD02040EA415007FB4F
:103B700003661EEA0E0F4FEAD12105FB026658BF0D
:103B8000A6EB0056B6EB00564FEA520E4EEAC37E45
:103B900018EB0E0E56EB530EBDD518EB02085E4126
:103BA0007F1C55F10005B6E74FF480154FF0000774
:103BB0004FF000064FF00008ADE7F0BC4FF00000FA
:103BC00001F1C04101F00041BDE8008111EA0C1F84
:103BD0000CEA131500D00CE013EA0C1F00F025804E
:103BE0004FF00000F0BC81EA030101F00041BDE8A4
:103BF0000081F0BCBDE8004181EA030100F0EEB9AC
:103C0000F0BCBDE8004170B500F09AF9097EFC3EB9
:103C100000F007B881EA03014FF0000001F0004115
:103C2000704781EA030100F0D9B9F0BCBDE800415A
:103C30004FF0000021497047FFFDFBF9F7F5F4F262
:103C4000F0EEEDEBE9E8E6E4E3E1E0DEDDDBDAD837
:103C5000D7D5D4D3D1D0CFCDCCCBCAC8C7C6C5C495
:103C6000C2C1C0BFBEBDBCBBBAB9B8B7B6B5B4B3AC
:103C7000B2B1B0AFAEADACABAAA9A8A8A7A6A5A497
:103C8000A3A3A2A1A09F9F9E9D9C9C9B9A9999985B
:103C90009797969595949393929191908F8F8E8EFE
:103CA0008D8C8C8B8B8A898988888787868585848B
:103CB00084838382828181800000FF070000F87F77
:103CC0004FEA41034FEA5353A3F58063D3F11E0338
:103CD000C8BFD3F1210C0CDD4FF0004242EAC122F3
:103CE00042EA505232FA03FC8CEAE17CACEBE17020
:103CF0007047102BC4BF0020704703F5787CBCF1DF
:103D0000FF3F04D06FF0004282EA2100704770B597
:103D100000F016F94992248000207047F2E710F075
:103D2000004248BF4042B0FA80F310FA03F10AD0D3
:103D3000C3F11D0303F580634FEA415002EB0352C8
:103D400002EBD12170474FF000007047B0FA80F3CA
:103D500010FA03F10AD0C3F11D0303F580634FEAA3
:103D600041504FEA035202EBD12170474FF000005F
:103D70007047000051EA030C17D41CF5801F58BF90
:103D8000BCF5801F00F10680994218BF704708BF3C
:103D90009042704707D711F5801F58BF13F5801F59
:103DA00019D499427047894270471CF5801F08D585
:103DB000BCF5801FF7D58B4218BF704708BF824201
:103DC00070474FF4001C1CEB410F38BF1CEB430F36
:103DD00001D28B42704770B500F0B2F892244900CE
:103DE0004FF000514FF08053FFF706BEDFF848C197
:103DF00070B51CEA111E1EBF1CEA13159EEA0C0FBB
:103E000095EA0C0F00F06F8081EA030423EA4C135B
:103E10004EEAD47E21EA4C1141F4801143F4801320
:103E2000AE44A1FB024CA0FB0365AEF17F7E3619C8
:103E300055EB0C05A1FB034C4CF10003A0FB021C4D
:103E400016EB0C06654153F10003094218BF46F01A
:103E5000010613F4007F0BD14FEA03314FEA05301E
:103E6000340341EA155140EA16506FF003020AE0AC
:103E70004FEAC3214FEAC520F40241EA555140EA16
:103E800056506FF0020202EB2E4201EB025585EA1A
:103E9000CE710AD05FEA440C18BF24F0004450F100
:103EA000000041F1000120EAD47040F2FE7C62453E
:103EB00000D270BDA84214BF4FF080444FF0404480
:103EC000002E08BF0024BEF1806FA8BFA1F1C04141
:103ED000BDE8704080F282804FF0000001F1C041E7
:103EE00001F0004170479EEA0C0F0CEA131518BF51
:103EF00095EA0C0F06D04FF0000081EA030E0EF099
:103F0000004170BD00F01CF88900013E00F007B8C8
:103F100000F009B84FEA430C5FEA5C5C08D081EA24
:103F2000030100F05BB84FEA410C5FEA5C5CF6D13C
:103F30004FF00000014970470000FF070000F87FC4
:103F40000EF1020E2EF0030E5EF8046B364205D41D
:103F5000012A43EB030515F5001F12D8012841EB98
:103F6000010C1CF5001F0CD80ED14FEAD17C15F5C1
:103F7000001F0CEB4C0C0CF1020C08BF4CEBD37C7B
:103F800004E04FF0080C01E04FEAD37C0CEB4C0549
:103F900026FA05F606F00706B6F1040C06D20EEB7B
:103FA000860CBDE870404CF0010C6047DFE80CF077
:103FB000090B02024FF000414FF00000A1F5002173
:103FC00070BD19461046012851EB010418BFD4F505
:103FD000001484BF002001F0004170BD0808A0F566
:103FE00000114FEA3101704753EA010C17D41CF558
:103FF000801F58BFBCF5801F00F106808B4218BFA0
:10400000704708BF8242704707D713F5801F58BF1B
:1040100011F5801F19D48B4270479B4270471CF5E5
:10402000801F08D5BCF5801FF7D5994218BF70478F
:1040300008BF904270474FF4001C1CEB430F38BF81
:104040001CEB410F01D2994270470FB40CBC03BC6A
:10405000FFF7C1BE91EA030F10B581F000413FF5B3
:1040600023AC83F0004300F009B8000010B591EADA
:10407000030F48BF83F000433FF516AC841A71EB81
:10408000030C07D212198CF0004C43EB0C03001BFD
:1040900061EB0C01DFF8A4E14FEA1154A4EB135CCF
:1040A0001EEA430F18BF9EEA445F00F0B08023EA87
:1040B0006E03524221EA0451C3EB6E0338BF5B1E0C
:1040C000DCF1200E25D322FA0CFE10EB0E0043FA91
:1040D0000CFE41EB0E01CCF1200E03FA0EFE10EBAC
:1040E0000E0051F10001CCF1200E29D412FA0EF28B
:1040F00001EB0451BDE8104058BF7047401C1CBF85
:10410000B2F1004F704700280CBF491C20F001009D
:10411000704712EB020E43EB030218BF4FF0010E83
:104120004EEA4202ACF1200CDCF11E0E54D943FAE7
:104130000CFE10EB0E0051F1FF31CCF11E0ED5D567
:104140000EF1010E12FA0EFE404141EB010101EBAE
:10415000445C5FEA5C5C10D910EBDE7001EB04514B
:1041600038BFBEF1004FBDE8104018BF70470028AF
:104170000CBF491C20F00100704730D24FEAD42C0C
:1041800011F5001124F400641BD0B1FA81F20B3A4E
:10419000A41AA41ED2F12003914030FA03F319436C
:1041A000904001EBCC71002C01EB0451BDE81040B4
:1041B000A8BF704701F1C0414FF0000001F000417D
:1041C0007047B0FA80F310FA03F100D110BDE41A81
:1041D000173C4805C90AE4E701EB045110BD49103A
:1041E00001EB0451BDE810404FEA300002E04FF00F
:1041F000000170474A0008BF0042F8D0B2F5001F26
:1042000028BF704701F000414FF0000070479EEA60
:10421000445F07D011EA5E0FBDE8104004BF0021E3
:1042200000207047BDE8104070B5FFF789FE00BF61
:1042300040DFF63E83F00041104670470000E0FF8B
:1042400043004FEAD30C4FEA3C0C43401FBF4007EA
:104250000CF1605113F0FE4F70471CF0006F03D15A
:1042600000200CF0004170470CF0004343EA50700E
:1042700010B540EACC0000F014F900BF0000009235
:104280004FEA0001FFF7AABE4FF000414FF00000D7
:10429000A1F500217047000090EA010F48BF81F0AE
:1042A000004100F15A81421A3CBF801A89184FEA36
:1042B000D0524FF07F4C1CEA410FA2EBD15318BFF4
:1042C0009CEA026F00F03B804FF0004C4CEA00206B
:1042D0004CEA012121FA03FC10EB0C0C1ED202F176
:1042E000FF325FEA1C2040EBC25038BF70471CF021
:1042F0007F0F4FEA400C18BFBCF17F4F38BF7047AB
:10430000C3F12003994008BF20F00100BCF17F4FAA
:1043100038BF7047A0F1C04000F009B94FEA3C0037
:10432000000A40EBC25028BF1CF0FF0F4FEA400CC0
:10433000E6D018BFBCF17F4F38BF7047EAE79CEA70
:10434000026F05D010EA5C0F08BF00F00040704714
:1043500010B500F0A6F800BF64FBBE3E014800F0B7
:104360006CB900BF0000C07F41000B0ED3F19E026C
:1043700008D950F400034FEA032323FA02F048BFA0
:104380004042704710B500F08CF800BF499224807D
:10439000002070476FF0004282EA20007047000062
:1043A0004FF47F0C1CEAD0121EBF1CEAD11392EA14
:1043B0000C0F93EA0C0F00F0478090EA010F48BF02
:1043C00042F480724FF0004C4CEA00204CEA01218C
:1043D00002EB0302A0FB0113A2F50002002918BFA3
:1043E00043F001035B0028BF4FEA330342EB224254
:1043F0005FEA132C4CEBC2502EBFBCEB436FB2F5FF
:104400007C0F70474FEA036CBCF1004F08BF20F0EF
:104410000100B2F57C0F38BF70470BD582F0FF0268
:1044200012F5803FC8BF704700F1C040D8BF00F010
:104430000040704700F5000C5FEA4C0C48BF704725
:10444000B0F1C04000F073B890EA010F0CEAD1134C
:1044500048BF42F48072624538BF634504D280EAA7
:10446000010000F00040704710B500F01AF800BFDE
:104470008900013E00F007B800F009B85FEA410C7E
:104480005FEA1C6C08D080EA010000F050B85FEAD7
:10449000400C5FEA1C6CF6D14FF00040A0F58000A4
:1044A00070470EF1020E2EF0030E5EF8044B24420C
:1044B00004D44FEA4102B2F17F4F11D84FEA4003D2
:1044C000B3F17F4F0CD80ED14FEAD07CB2F17F4FC1
:1044D0000CEB4C0C0CF1020C08BF4CEBD17C04E053
:1044E0004FF0080C01E04FEAD17C0CEB4C0324FAAE
:1044F00003F404F00704B4F1040C06D20EEB840CB0
:10450000BDE810404CF0010C6047DFE80CF00708F4
:1045100002024FF00040A0F5800010BD08464200A6
:1045200018BFD2F1807288BF00F0004010BDFF219B
:1045300041EAD050C005704780F0004090EA010F7A
:104540007FF5B1AE81F0004100F007B890EA010FAD
:1045500048BF81F000413FF5A6AE421A04D882F070
:104560000042A0EB020011444FEAD0524FF07F4CC2
:104570001CEA410FA2EBD15318BF9CEA026F4AD04C
:104580004FF0004C4CEA00204CEA012121FA03FCD8
:10459000B0EB0C0C0FD412F0FE0F36D05FEA4C00DB
:1045A0001DD5001240EBC25038BF70471CF03F0FC2
:1045B00018BF70470BE0A2F101025FEA1C2040EB3C
:1045C000C25038BF70471CF07F0F18BF7047C3F14F
:1045D0002003994014BF401E20F00100704780085E
:1045E0004FEA122308BF7047B0FA80FCA2EB0C021E
:1045F000CCF1280C60FA0CF093EA122F04BF00EB08
:10460000C25070474FEAC3707047130A5FEADC106C
:1046100008BF7047F6E79CEA026F04D010EA5C0F0F
:1046200008BF0020704710B5FFF73BFF40DFF63EA4
:1046300081F000407047FCF74AB80CF00F03092BDB
:1046400008BF082000F07F800A2B0BD0082B18BF72
:10465000704708BF1CF0400F0AD04FF000004FF029
:10466000000170471CF0400F18BF4FF0004070472A
:104670001CF0100F08D020F0704300F07F4242EA97
:10468000D3014FEA4370704700F0604021F07F4251
:1046900042EA000201F07F4040EA727070474FF03A
:1046A000FF0C4CF4E06C1CEA11531CBF9CEA030C99
:1046B0009445C2BFDA4201EB02517047002B0DD086
:1046C000BCF1000F0FD0002A01F00041A4BF41F05F
:1046D000E04141F07F614FF00000704701F0004180
:1046E0004FF00000704750EA01334FF09B0C18BFA9
:1046F0004CF0806C7FF478A970474FF0FF0212EA0B
:10470000D0521CBF92F0FF038B42C2BFD14200EBDC
:10471000C1507047002A0AD0002B0BD0002900F0AE
:104720000040A4BF40F0FE4040F40000704700F09D
:104730000040704743024FF00B0C18BF4CF0806CE8
:104740007FF40CAE70471CF4801F11D01CF4E02FD6
:1047500003D06FEACC31490070474FF04050EFF37F
:10476000008222F0704242EA000282F30088704721
:104770004FF0000070474E4D495F48616E646C65B4
:104780007200486172644661756C745F48616E6462
:104790006C6572004D656D4D616E6167655F486166
:1047A0006E646C6572004275734661756C745F4827
:1047B000616E646C65720055736167654661756C06
:1047C000745F48616E646C6572005356435F486164
:1047D0006E646C65720044656275674D6F6E5F480C
:1047E000616E646C65720050656E6453565F48611B
:1047F0006E646C6572000400000800000000000098
:1048000000020001000010004FBB610567ACDD3FF6
:10481000182D4454FB21E93F9BF681D20B73EF3FE7
:10482000182D4454FB21F93FE2652F227F2B7A3C5F
:10483000075C143326A6813CBDCBF07A8807703C18
:10484000075C143326A6913CC4EB98999999C9BF8B
:10485000711623FEC671BCBF6D9A74AFF2B0B3BFC0
:104860009AFDDE522DDEADBF2F6C6A2C44B4A2BF80
:104870000D5555555555D53FFF8300922449C23FEC
:104880006E204CC5CD45B73F513DD0A0660DB13F20
:10489000EB0D76244B7BA93F11DA22E33AAD903F32
:1048A0004C5555555555A53F7751C1166CC156BF4E
:1048B0009015CB19A001FA3EAD529C804F7E92BE5E
:1048C000C4B1B4BD9EEE213ED43888BEE9FAA8BD7D
:1048D000000000000000000000004054FB21F93FF0
:1048E0003163621A61B4D03D0000601A61B4D03DFA
:1048F0007370032E8A19A33B0000002E8A19A33B74
:10490000C14920259A837B39000000000000000087
:104910006E83F9A22915444ED15727FCC0DD34F52A
:10492000999562DB4190433CAB6351FE61C5BBDEB0
:104930003A6E24B7E0D24D42EA2E49061C92D109C4
:104940001CEB1DFE3EA729B1F53582E88444BB2E41
:1049500026709CE9417E5FB439D69139F43953838E
:104960008B5F849C3B28F9BDFF97F81F0F9805DEED
:104970008B112FEF1F6D0A5ACF7E366DB709CB27EB
:10498000663F464F2DEA5F9EC7BA27757BF1E5EB80
:10499000F739073DEA92528AB15FFB6B085D8D1FC4
:1049A000A6F810111111813FD561C119A0012ABFCC
:1049B0007DFEB157E31DC73EEB9C2B8AE6E55ABE50
:1049C0007CD5CF5A3AD9E53D02400000000000A056
:1049D0000000000005400000000000C800000000CA
:1049E0000C4000000000409C000000001940000046
:1049F0000020BCBE0000000034400000BFC91B8E78
:104A000000000004B5400000504BCFD06607E2CF55
:104A1000010000006C4100003E8251AADFEEA73485
:104A200001000000D9420000DCB5A0E23A301F9737
:104A3000FFFFFFFFB4450000FD25A0C8E9A3C14F5B
:104A4000FFFFFFFFFF3F00000000008000000000AC
:104A5000FF3F00000000008000000000984A0008AE
:104A600000000020540000006C010008EC4A00081F
:104A700054000020B4070000880100081C0000005A
:104A800043000000F8FFFFFF0C0000000E000000D4
:104A90000F0000002E0000000204060800000000C5
:104AA00001020304010203040607080900000000D4
:104AB00000000000000000000000000000000000F6
:104AC00000000000FFFFFF0002000000281E0000A1
:104AD00000000000000000000000000000000000D6
:0C4AE000000000000000000000000000CA
:0400000508000131BD
:00000001FF
